:020000040800F2
:10000000B8080020DD010008470F0008490A000871
:10001000450F0008490900083518000800000000D5
:10002000000000000000000000000000D5130008E0
:100030004B090008000000000D1300089914000887
:10004000F7010008F7010008F7010008F7010008B0
:10005000F7010008F7010008F7010008F7010008A0
:10006000F7010008F7010008F7010008F701000890
:10007000F7010008F7010008F7010008F701000880
:10008000F7010008F7010008F7010008F701000870
:10009000F7010008F7010008F7010008F701000860
:1000A000F7010008F7010008F7010008F701000850
:1000B000F7010008ED140008F7010008F701000837
:1000C000F7010008F7010008F7010008F701000830
:1000D000F701000855160008F7010008BD160008D2
:1000E000F7010008F7010008F7010008F701000810
:1000F000F7010008F7010008F7010008F701000800
:10010000F7010008F7010008F7010008F7010008EF
:10011000F7010008F7010008F7010008F7010008DF
:10012000F7010008F7010008F7010008F7010008CF
:1001300000F002F800F042F80AA090E8000C8244B7
:100140008344AAF10107DA4501D100F037F8AFF294
:10015000090EBAE80F0013F0010F18BFFB1A43F0A5
:1001600001031847447D0000647D0000103A24BF5D
:1001700078C878C1FAD8520724BF30C830C144BF0C
:1001800004680C607047000000230024002500264E
:10019000103A28BF78C1FBD8520728BF30C148BFEA
:1001A0000B607047642900F09380782900F0CC80C0
:1001B000002070471FB51FBD10B510BD00F096FBA5
:1001C0001146FFF7F7FF04F057F900F0B4FB03B452
:1001D000FFF7F2FF03BC01F0B2FB000009488047C3
:1001E00009480047FEE7FEE7FEE7FEE7FEE7FEE719
:1001F000FEE7FEE7FEE7FEE704480549054A064B31
:10020000704700009D14000831010008B80200206A
:10021000B8080020B8040020B8040020704710B5CA
:100220004C1084EA530404D54042C1F1000138BFA8
:10023000491E1B4204D55242C3F1000338BF5B1E66
:1002400000F01BFA14F0804F04D04042C1F10001CD
:1002500038BF491E14F0004F04D05242C3F10003CE
:1002600038BF5B1E10BD00000FB4044910B503AACF
:10027000029800F0DDFA10BC5DF814FB5C00002071
:1002800070B5044685690068C10601D5302600E0D6
:100290002026C00707D070BDD4E901213046904721
:1002A000206A401C20626D1EF6D570BD70B50446F4
:1002B00085690078C00707D170BDD4E901212020ED
:1002C0009047206A401C20626D1EF6D570BD00006C
:1002D0002DE9F0410646002410687529314616A51F
:1002E00010D0AFF30080002802DA404213A507E0E7
:1002F00031688A0701D512A502E0490704D511A586
:10030000012401E0AFF3008000210A2206F1240756
:1003100009E0B0FBF2FCB0FBF2F302FB1C00303052
:1003200078541846491C0028F3D123462A46304603
:10033000BDE8F04100F023BA000000002D000000ED
:100340002B0000002000000070B504460D46214639
:100350001068AFF300802188090502D50F4A7A445E
:1003600002E00E4A7A440E32002104F1240305E033
:1003700000F00F060009965D5E54491C0028F7D175
:1003800020780023000704D5702D02D009B1022384
:1003900011322046BDE8704000F0F1B9CC79000080
:1003A0002DE9F05F894604464FF0000ADFF824B1DA
:1003B000FB44C0F820A02046E168884700287DD093
:1003C000252806D0D4E901219047206A401C2062EC
:1003D000F1E700255F462046E16888472028064669
:1003E00007DB312E05D2B81910F8200C08B10543EF
:1003F000F1E7A80701D525F00405C4F81CA00027E3
:10040000C4F818A02A2E09D0304601F091FA38B36A
:1004100004EB8708303EC8F8186019E059F8041B4F
:10042000204604EB87029161E1688847012F064668
:1004300018D1E069002820DA25F020051DE0D8F861
:10044000180000EB800006EB40003038C8F81800B8
:100450002046E1688847064601F06AFA0028EED196
:10046000012F0AD02E2E08D12046E16888477F1C34
:100470000646022F45F02005C4DBA069002803DAF8
:10048000404245F00105A061E80701D025F01005C4
:10049000A6B1A6F14100192802D8203645F400651E
:1004A0004A463146204625604D46FFF77BFE60B147
:1004B000012807D0ED1D25F0070000E007E000F15E
:1004C000080978E705F1040975E730467AE7206AFC
:1004D000BDE8F09FA279000040EA010310B59B0738
:1004E0000FD1042A0DD310C808C9121F9C42F8D09E
:1004F00020BA19BA884201D9012010BD4FF0FF304F
:1005000010BD1AB1D30703D0521C07E0002010BD64
:1005100010F8013B11F8014B1B1B07D110F8013BF0
:1005200011F8014B1B1B01D1921EF1D1184610BDD1
:10053000032A40F2308010F0030C00F0158011F80F
:10054000013BBCF1020F624498BF11F801CB00F8E7
:10055000013B38BF11F8013BA2F1040298BF00F83B
:1005600001CB38BF00F8013B11F0030300F02580F8
:10057000083AC0F0088051F8043B083A51F804CB1F
:10058000A0E80810F5E7121D5CBF51F8043B40F8E5
:10059000043BAFF30080D20724BF11F8013B11F8F0
:1005A00001CB48BF11F8012B24BF00F8013B00F834
:1005B00001CB48BF00F8012B704710B5203AC0F0BE
:1005C0000B80B1E81850203AA0E81850B1E8185054
:1005D000A0E81850BFF4F5AF5FEA027C24BFB1E891
:1005E0001850A0E8185044BF18C918C0BDE8104002
:1005F0005FEA827C24BF51F8043B40F8043B08BF0B
:100600007047D20728BF31F8023B48BF11F8012BD1
:1006100028BF20F8023B48BF00F8012B704702F0CA
:10062000FF0343EA032242EA024200F002B84FF01D
:1006300000020429C0F0128010F0030C00F00C81BD
:10064000CCF1040CBCF1020F18BF00F8012BA8BFBD
:1006500020F8022BA1EB0C0100F0FEB85FEAC17C90
:1006600024BF00F8012B00F8012B48BF00F8012B34
:100670007047704770477047704753EA020C00F0AC
:1006800069802DE9F04B4FF00006002B1FBFB3FA35
:1006900083F503FA05F424FA05F65E4012BF16430B
:1006A000B2FA82F502FA05F4C5F120051EBF22FA5E
:1006B00005FC44EA0C04203556EA044C4FEA144485
:1006C00018BF641C4FF000084FF00009904271EB16
:1006D000030C39D3002919BFB1FA81F701FA07F6E3
:1006E000B0FA80F700FA07F6C7F120071EBF20FA1C
:1006F00007FC46EA0C062037B6FBF4FCA7EB05071F
:10070000103F07F01F0BCBF120060CFA0BFB2CFA65
:1007100006F644BFB3460026202FA4BF5E464FF026
:10072000000B5BEA060C08BF4FF0010B19EB0B093D
:10073000ABFB027C48EB0608C01B06FB02CC0BFBA4
:1007400003CC71EB0C01C1E70B460246414648461B
:10075000BDE8F08B13B54FF000004FF00001AFF390
:100760000080BDE81C40704710B500F09BF80068A1
:1007700010BD10B5044600F095F8046010BD2DE9D9
:10078000F0470D4699469246044600F12408016858
:10079000880604D5E06921F01001216000E0012005
:1007A000A84201DD471B00E00027A1697A1902EB8E
:1007B0000900081AA0612078C00602D42046FFF77D
:1007C0005FFD002608E0D4E901211AF806009047F1
:1007D000206A401C761C20624E45F4DB2078C0065F
:1007E0000AD52046FFF74CFD06E0D4E90121302070
:1007F0009047206A401C2062381EA7F10107F4DCF4
:1008000007E0D4E9012118F805009047206A401C50
:100810002062281EA5F10105F3DC2046FFF746FD06
:100820002078000602D50220BDE8F0870120FBE712
:10083000074B70B50D467B4400F03DF80446284652
:1008400000F04CF810B14FF0FF3070BD204670BD85
:10085000CF2100004FF0000200B5134694469646A3
:10086000203922BFA0E80C50A0E80C50B1F12001C3
:10087000BFF4F7AF090728BFA0E80C5048BF0CC071
:100880005DF804EB890028BF40F8042B08BF7047CF
:1008900048BF20F8022B11F0804F18BF00F8012B41
:1008A00070470000004870475402002001694A1C4C
:1008B00002610878704700B58FB0CDE901310021A1
:1008C000059105497944CDE9031011466846FFF7C3
:1008D00067FD0FB000BD0000E5FFFFFF007B00F0EB
:1008E0008000704700487047540200207546FFF7AB
:1008F000F9FFAE4605006946534620F007008546DD
:1009000018B020B5FFF778FCBDE820404FF0000696
:100910004FF000074FF000084FF0000B21F00701E7
:10092000AC46ACE8C009ACE8C009ACE8C009ACE82A
:10093000C0098D46704710B50446AFF300802046CD
:10094000BDE81040FFF743BCFEE77047F0B5CC7838
:10095000002204F00F03E40601D58C7823430C78C1
:100960004FF00F0C14F0FF0F4FF0010E1BD0056875
:100970000E880EFA02F42640A64210D196000CFA18
:1009800006F725EA070703FA06F5CE783D43282E39
:1009900002D0482E02D002E0446100E00461521C03
:1009A000082AE5D305600A88FF2A1CD9446800227A
:1009B00002F108060EFA06F50E882E40AE420ED160
:1009C00096000CFA06F7BC4303FA06F7CE783C43D0
:1009D000282E00D14561CE78482E00D10561521CE9
:1009E000082AE5D34460F0BDF0B5144C002801DAC4
:1009F000E36900E06368450D2E0185B2C0F301573D
:100A0000B540C0F30342032F05D0C6020AD5032622
:100A10009640B34307E023F07062636823F070638D
:100A2000636002E0AB4343F0706201B12A430028E7
:100A300001DAE261F0BD6260F0BD0000000001403B
:100A40004161704701617047FEE700007CB50546D3
:100A50006B4606223B21682000F0BFF904000FD14D
:100A6000BDF8000040BA05F0BCF96FF00D0205F0CA
:100A7000D6FF044A044B05F0C7F905F083F9288036
:100A800020467CBD9A9999999999234070B50D4C4F
:100A90000025C4F898510C48016821F070410160AC
:100AA000016841F040510160C4F89C51022004F5F6
:100AB000CC7401F0D1FA01202060022001F0CCFAC0
:100AC000256070BD00802142000C014038B5012135
:100AD000082000F029FCC020ADF8000010208DF89F
:100AE00003000320054C8DF8020069462046FFF7FD
:100AF0002DFFC0212046FFF7A5FF38BD000C0140A7
:100B000070B50D4C0026C4F898610C48016821F0BE
:100B100070410160016841F0405101600125C4F855
:100B20009C51022004F5CC7401F096FA2560022055
:100B300001F092FA266070BD00802142000C014055
:100B40002DE9F047814617480024016821F07041E3
:100B50000160016841F000410160134E25462746BF
:100B60004FF00108C6F89871022001F075FAC6F836
:100B700098816006040ED6F81C0108B1641CE4B22A
:100B8000022001F069FA6D1CEDB2082DEAD3B9F12B
:100B9000000F04D0FFF77AFF2046BDE8F087FFF78B
:100BA000AFFFF9E7000C0140008021422DE9F04140
:100BB00005461248016821F070410160016841F06A
:100BC000405101600E4E0027C6F898713C464FF028
:100BD0000108E809C6F89C016806050EC6F8988168
:100BE000022001F039FAC6F89871022001F034FAB7
:100BF000641CE4B2082CECD3BDE8F081000C014089
:100C00000080214270B50D48016821F070410160FB
:100C1000016841F040510160094C0120C4F89C0179
:100C2000C4F89801022004F5CC7401F015FA0025EF
:100C30006560022001F010FA256070BD000C0140D3
:100C4000008021420E4810B5016821F0704101601A
:100C5000016841F0405101600A4C0020C4F898013D
:100C6000C4F89C01022004F5CC7401F0F5F90120D0
:100C700020606060BDE81040022001F0EDB9000086
:100C8000000C01400080214270B513480024016827
:100C900021F070410160016841F0004101600F4D99
:100CA0000126C5F89C61022001F0D6F9C5F89861CB
:100CB000022001F0D1F907E0641CE4B2FA2C03D958
:100CC000FFF7C0FF012070BDD5F81C010028F3D14B
:100CD000C5F8980170BD0000000C01400080214261
:100CE00008B50121084600F01FFB0121042000F097
:100CF0001BFB4FF40040ADF8000010208DF80300FE
:100D000003208DF8020069462248FFF71FFE0121EB
:100D10002148FFF769FE21490020C1F8BC01FFF717
:100D2000D5FE80216B2000F0C6F8642001F07AF92E
:100D300000216B2000F0BFF8032000F088F80020AD
:100D400000F080F8322000F09FF80021382000F0F9
:100D5000B2F800216A2000F0AEF80021232000F054
:100D6000AAF88021372000F0A6F8752000F018F8C6
:100D7000682801D0012008BD01216B2000F09BF8FC
:100D800000216C2000F097F8322000F07DF8002060
:100D900008BD0000000801400002300000002142B0
:100DA00010B50446FFF72EFFD020FFF7FFFEFFF738
:100DB0006BFF2046FFF7FAFEFFF766FFFFF722FF03
:100DC000D120FFF7F3FEFFF75FFF0020FFF7B8FE2B
:100DD0000446FFF737FF204610BD2DE9F0411C46C1
:100DE00015460F460646FFF70DFF7006000EFFF78B
:100DF000DDFEFFF749FF20B1FFF724FF0120BDE82A
:100E0000F0813846FFF7D2FEFFF73EFFFFF7FAFE0C
:100E1000012000EB4600C0B2FFF7C8FEFFF734FF29
:100E200008E0012D0CD00120FFF78AFE6D1E04F8AA
:100E3000010BEDB2002DF4D1FFF704FF0020DEE737
:100E40000020F1E7C006010E1C2000F034B8C006F7
:100E5000010E1B2000F02FB8BC2801D3012110E0A7
:100E6000622801D302210CE02A2801D3032108E0E3
:100E7000142801D3042104E00A2801D3052100E04D
:100E800006211A2000F017B810B504464FF47A7006
:100E9000844201D9044602E0042C00D20424B0FBB1
:100EA000F4F0401EC1B2192000F005F86008BDE85A
:100EB0001040FFF7D1BF70B50C460546FFF7A2FE04
:100EC000D020FFF773FEFFF7DFFE50B92846FFF78B
:100ED0006DFEFFF7D9FE2046FFF768FEFFF7D4FE50
:100EE00018B1FFF7AFFE012070BDFFF7ABFE002089
:100EF00070BD2DE9F0411D4616460C460746FFF72A
:100F000081FE7806000EFFF751FEFFF7BDFE60B9C7
:100F10002046FFF74BFEFFF7B7FE00240CE0285DEC
:100F2000FFF744FEFFF7B0FE20B1FFF78BFE012074
:100F3000BDE8F081641CE4B2B442F0D3FFF782FE56
:100F40000020F5E7FEE7704730B50F23C27801783F
:100F50000125F2B1144A126801F1E02102F4E062C5
:100F6000C2F5E062120AC2F10404D3404278A24002
:100F700084781C401443220181F80024007800F09A
:100F80001F018D404009800000F1E020C0F80051B1
:100F900030BD01F01F0085404809800000F1E020CD
:100FA000C0F8805130BD00000CED00E0024908435C
:100FB00002490860704700000000FA050CED00E0EF
:100FC00070B5002505F1B000C0B2002100F064F951
:100FD0000021084600F060F90021102000F05CF9C3
:100FE00000240121002000F057F9641CE4B2802C99
:100FF000F7D36D1CEDB2082DE4D370BDF8B5012117
:10100000042000F091F9B020ADF800001026584DF2
:101010008DF8036003248DF8024069462846FFF7E7
:1010200095FCB0212846FFF70DFD0121082000F0B6
:101030007BF940F20315ADF800508DF803608DF890
:1010400002404C4C69462046FFF780FC294620466A
:10105000FFF7F8FC01212046FFF7F4FC642000F0C4
:10106000E1FF01212046FFF7EBFCC82000F0DAFF8A
:1010700001212046FFF7E6FC0021AE2000F00CF92C
:101080000021084600F008F90021102000F004F9C2
:101090000021402000F000F90021812000F0FCF840
:1010A0000021CF2000F0F8F80021A12000F0F4F892
:1010B0000021C82000F0F0F80021A62000F0ECF894
:1010C0000021A82000F0E8F800213F2000F0E4F81B
:1010D0000021D32000F0E0F80021084600F0DCF801
:1010E0000021D52000F0D8F80021802000F0D4F8AD
:1010F0000021D92000F0D0F80021F12000F0CCF838
:101100000021DA2000F0C8F80021122000F0C4F815
:101110000021DB2000F0C0F80021402000F0BCF8E6
:101120000021202000F0B8F80021022000F0B4F8DF
:1011300000218D2000F0B0F80021142000F0ACF860
:101140000021A42000F0A8F80021A62000F0A4F8B7
:101150000021AF2000F0A0F80021AF2000F09CF8A3
:10116000FFF72EFF0021084600F006F8F8BD00004A
:1011700000080140000C014010B50446B031C8B26F
:10118000002100F089F8102040EA1410002100F03E
:1011900083F804F00F00BDE8104040F0010000218A
:1011A00000F07AB82DE9F041203A00240F4680463D
:1011B000D5B27F2803D900208F1C8046FFB2394664
:1011C000FFF7DAFF0E4E04EB05100121305C00F052
:1011D00063F8641CE4B2082CF5D37F1CF9B24046D6
:1011E000FFF7CAFF002404EB051030440121007A08
:1011F00000F052F8641CE4B2082CF4D3BDE8F0818E
:101200003E7700082DE9F0478046002708981D46E4
:1012100091468A463C46460821E0281B401EC1B242
:101220000A2004F0F3F8B9FBF0F00A21B0FBF1F268
:1012300001FB120027B9691E8C4201DA30B1012787
:101240003030C2B206FB0480C0B203E006FB04806B
:10125000C0B220225146FFF7A5FF641CE4B2AC42A5
:10126000DBD3BDE8F0872DE9F04117460E46044672
:1012700000250CE031462046FFF794FF0834E4B225
:10128000782C02D90024B61CF6B26D1CEDB27A5D42
:10129000002AEFD1BDE8F0812DE9F041194F054654
:1012A00000294FF00201384602D0FFF7CBFB01E0E6
:1012B000FFF7C6FB144E10213046FFF7C1FB002498
:1012C00020213046FFF7BCFB28064FF08001304656
:1012D00002D5FFF7B7FB01E0FFF7B2FB2021304654
:1012E000FFF7B0FB6806641C050EE4B2082CE7D3D8
:1012F00010213046FFF7A6FB3846BDE8F041022139
:10130000FFF7A0BB000C014000080140704700003F
:10131000044A0029D16901D0014300E08143D16131
:101320007047000000100240044A0029916901D072
:10133000014300E0814391617047000000100240CA
:1013400030B5204A5168204B11F00C0103D004291C
:1013500001D0082901D0036012E05168536801F4FC
:1013600070114FF0020413F4803F04EB914102D05E
:1013700053689B0301D5154B00E0134B59430160A3
:1013800051680F2303EA1111114B5C5C0168E140C5
:1013900041605468072505EA14241C5D21FA04F411
:1013A0008460546805EAD4241B5DD940C16052684A
:1013B000032303EA9232064B1B1F9A5CB1FBF2F146
:1013C000016130BD0010024000127A0000093D00AA
:1013D00064000020704700000CB5002226480092EF
:1013E0000192016841F4803101604FF4A06301680B
:1013F00001F4003101910099491C0091019911B942
:1014000000999942F3D10168890333D501210191F3
:101410001A490A6842F010020A600A6822F00302C0
:101420000A600A6842F002020A604168416041684D
:101430004160416841F480614160416821F47C1160
:101440004160416841F454114160016841F080718C
:10145000016001688901FCD5416821F00301416008
:10146000416841F0020141604168C1F381010229F4
:10147000FAD10CBD01920CBD0010024000200240C8
:101480004FF0E0210428086903D020F0040008612F
:10149000704740F00400FAE7704700000F4810B5AD
:1014A000016841F00101016041680D4A114041604D
:1014B00001680C4A11400160016821F4802101603B
:1014C000416821F4FE0141604FF41F018160FFF784
:1014D00083FF05494FF00060086010BD0010024016
:1014E0000000FFF8FFFFF6FE08ED00E010B5084C25
:1014F0000121204600F04BF8002807D001212046AA
:1015000000F038F8BDE8104002F05CBC10BD0000EF
:10151000000400407FB50D46044601210220FFF77C
:10152000F7FEADF80440ADF800500024104DADF8C2
:101530000640ADF802406946284600F03DF8012219
:101540001146284600F02FF81D218DF80C108DF85B
:101550000D4003208DF80E0001208DF80F0003A828
:10156000FFF7F2FC0121284600F007F87FBD0000DC
:1015700000040040C943018270470029018802D05D
:1015800041F0010101E021F00101018070470246B4
:101590000020138A92890B4202EA010202D0002A3B
:1015A00000D001207047002A828901D00A4300E060
:1015B0008A4382817047000030B502881B4C1C4D65
:1015C000A0420DD0A8420BD0B0F1804F08D0194BEB
:1015D000984205D0184B984202D0184B984203D13C
:1015E00022F070034A881A43154B984206D0154BD7
:1015F000984203D022F44073CA881A4302808A8832
:1016000082850A880285A0420AD0A84208D00E4AE4
:10161000904205D00D4A904202D00D4A904201D12D
:10162000097A01860121818230BD0000002C014031
:10163000003401400004004000080040000C00405D
:1016400000100040001400400040014000440140F0
:101650000048014010B5164C40F22551204600F0DC
:1016600054F800281CD0204600F0DCF8114AC0B223
:1016700000231178BB2814D0002911D00E4C5178CA
:101680006054491CC9B25170BB2809D1072907D140
:1016900060789070B4F8030040BAD0701370537043
:1016A00010BD0029EAD1537001211170E6E7000056
:1016B00000380140560000209800002038B5094C41
:1016C00040F22551204600F020F8002808D020469E
:1016D00000F0A8F88DF800000121684602F0DAFA5F
:1016E00038BD0000004800400029818902D041F443
:1016F000005101E021F40051818170470246002031
:1017000012880A4200D00120704770B501F01F0511
:1017100001260024C1F3421306FA05F2012B0FD073
:10172000022B0FD0838A4FEA11210088134206FA58
:1017300001F600EA060001D000B10124204670BD88
:101740008389F0E7038AEEE710B5C1F3421301F095
:101750001F040121A140012B07D0022B07D0143018
:10176000002A026805D00A4304E00C30F8E7103084
:10177000F6E78A43026010BD30B50446008A85B0A2
:101780000D464CF6FF710840E98801432182A0898B
:101790004EF6F3110840A9882A8911436A89024349
:1017A0001143A181A08A4FF6FF410840A989014356
:1017B000A1826846FFF7C4FD1948844201D103980D
:1017C00000E00298A189090400EBC00101EB0010C0
:1017D000296801D5490000E08900B0FBF1F06422DE
:1017E000B0FBF2F109010B096FF018056B4300EB38
:1017F0008300A3891D044FF0320306D503EBC0001C
:10180000B0FBF2F000F0070005E003EB0010B0FBC6
:10181000F2F000F00F000843208105B030BD000059
:10182000003801408088C0F308007047C1F3080108
:1018300081807047FEE7490050EAC12018BF0420AC
:101840004A0D18BF40F0010040F2FF72B2EB515F49
:1018500008BF40F00200012808BF052070472DE9AD
:10186000F0414F1E00EBC7010446D1E900011546C7
:101870001E4637F006020DD02A46334604F0C4FA5D
:101880007F1E04EBC703D3E9002304F02BF837F0E5
:101890000602F1D1022F25D0042F13D0062F18BF36
:1018A000BDE8F0812A46334604F0AEFAD4E90A23B3
:1018B00004F018F82A46334604F0A6FAD4E90823BF
:1018C00004F010F82A46334604F09EFAD4E90623C1
:1018D00004F008F82A46334604F096FAD4E90423C3
:1018E00004F000F82A46334604F08EFAD4E90223C5
:1018F00003F0F8FF2A46334604F086FAD4E90023C1
:10190000BDE8F04103F0EEBF012205F088B803F016
:10191000E9BF002213461046114604F09FB80000AC
:10192000024A0020110705F07AB8000001FDFFFF10
:1019300030380A2801D201207047002070477047D4
:101940002DE9FE4F80460F460025684601F068F8F5
:1019500000246FF00F0AE946012658F8240057F8D2
:101960002410401A00D5404204F0BAFE514605F05A
:1019700084F859F8241011F0FF4F0BD004F0B2FD99
:101980004FF07E5104F0A4FF094920F00040884246
:1019900005DC07E0074908440749884202D306FAF4
:1019A00004F00543641C032CD7DB2846BDE8FE8FFA
:1019B000295C0F3E666666C19A99D9002DE9F04D03
:1019C0008D4F21F0004A86B005460C46BA452ADB09
:1019D000AAEB070028430AD08848824501DC1AD1C7
:1019E000CDB106B02846BDE8F04DFFF78DBF844A63
:1019F000844B284604F008FA07460E46824A834B79
:101A00002846214604F000FA06B03A463346BDE8BF
:101A1000F04D03F067BF0120FEF7ABFE06B0BDE856
:101A2000F04DFFF776BF7A48824542DABAF1795F26
:101A30000BDA2846FFF7FFFE042808BFFFF770FF08
:101A4000284606B02146BDE8F08D2A460B461046D2
:101A500004F0DAF9834602466E480E460B4606212C
:101A60007844FFF7FCFE5A46334604F0CDF9804631
:101A700069488A465A46334604217844FFF7EFFE08
:101A80005A46334604F0C0F900223B4603F02AFFD1
:101A900002460B464046514603F0E0FF2A462346E5
:101AA00004F0B2F906B02A462346BDE8F04D03F033
:101AB00019BF284624F0004100223D463B4604F071
:101AC000A1FA4FF0FF3204F0AAFF0646024653483F
:101AD0000F460B4606217844FFF7C1FE32463B46CF
:101AE00004F092F9CDE900014D4832463B4604210D
:101AF0007844FFF7B4FE32463B4604F085F90022F5
:101B00002B4603F0EFFE834602913046394603F040
:101B1000ABFD804643480D46504517DCDDE900012A
:101B20005A46029B03F09AFF42462B4604F06CF99A
:101B300042462B4603F0D6FE012204F070FF304AE5
:101B4000304B04F051FB304A304B4CE04FF0000A70
:101B500052460B46404603F0C5FECDE903105246FF
:101B60002B461046194604F04FF932463B4604F026
:101B700049FADDE9033203F071FF06460F46DDE95D
:101B800000015A46029B03F069FF8346009101223F
:101B90003046394604F043FF194A1A4B04F032FA32
:101BA00006460F4601224046294604F038FF5A46B1
:101BB000009B04F029F932463B4604F015FB06462B
:101BC0000F4601225046294604F029FF0E4DDFF84A
:101BD00058802A46434604F015FA32463B4604F044
:101BE00011FA2A46434604F00DFA002CD8BF81F0C2
:101BF000004106B0BDE8F08D0000F03F0000F07F2E
:101C0000075C143326A6913C182D4454FB21F93F60
:101C10000000E03F046300001A6300008E620000D1
:101C2000A46200003333EF3FFB21E93F2DE9F84F79
:101C300004460D4621F0004000917349814211DCB9
:101C40007249884201DC06D12CB120462946BDE804
:101C5000F84FFFF759BE6E48002DCCBF6D496E4955
:101C6000BDE8F88F6D49814211DD6D498142D8BFD1
:101C70004FF0FF366DDD20462946FFF7DCFD0428D6
:101C800008BFFFF74DFE20462946BDE8F88F65499D
:101C9000654F25F00045814233DD6449814219DDFD
:101CA000002632464FF080432046294603F01AFEB4
:101CB00080468A4601222046294604F0B0FE0022D2
:101CC0003B4604F091FA4246534603F0C7FE0446F1
:101CD0000D463EE001260022BA463B4620462946F4
:101CE00003F000FE80460F46002253462046294658
:101CF00004F07AFA42463B4603F0B0FE04460D4635
:101D000027E04B4981421BDDDFF828A10226002293
:101D100053462046294604F077F800223B4603F05C
:101D2000E1FD80460F46002253462046294604F036
:101D30005BFA42463B4603F091FE04460D4608E03E
:101D4000032622462B4600203B4903F087FE04462B
:101D50000D4622462B461046194604F055F88B4690
:101D6000824602460B4604F04FF8074602463348C7
:101D700088460B4606217844FFF771FD52465B46C4
:101D800004F042F882462E488B463A4643460521E7
:101D90007844FFF764FD3A46434604F035F80246BE
:101DA0000B46002E504659460CDA03F09BFD2246A6
:101DB0002B4604F029F801B022462B46BDE8F04F2F
:101DC00004F020B903F08EFD22462B4604F01CF8E7
:101DD0001C4A7A4402EBC603D3E9002304F004FA58
:101DE00022462B4604F000FA174A7A4402EBC60357
:101DF000D3E9002304F006F9009A002AB8BF81F065
:101E00000041BDE8F88F0000000010440000F07FA2
:101E1000182D4454FB21F93FFB21F9BF0000DC3FA2
:101E20000000203E0000F33F0000F03F0000E63FCE
:101E3000008003400000F83F0000F0BFA6600000F3
:101E40006460000002600000CA5F00002DE9F04DF0
:101E50009446CCF1000423F000464CEA0404594FA8
:101E600046EAD4749A46884621F00042BC4206D81D
:101E7000454240EA050442EAD474BC4204D9BDE8B4
:101E8000F04D6246FFF743BDAAF14055A5F17F65CD
:101E900055EA0C040BD0022404EAAA744A4DDFF878
:101EA0002CE144EAD87452EA000B04D00CE0BDE8FF
:101EB000F04DFFF7BBBE002C14BF012CBDE8F08D28
:101EC000022C30D0032C32D056EA0C0B0AD0BE4282
:101ED00020D1BA4209D126F0804622F08042334612
:101EE000114617E000291ADB25E0DFF8E4B0FB44D7
:101EF000002C04BFDBE90001BDE8F08D012C02BF1E
:101F0000DBE9000181F00041BDE8F08D022C0AD030
:101F1000032C0CD0BA4212D1B8F1000F0BDA2A48C8
:101F20002C49BDE8F08D28462B49BDE8F08D2846A8
:101F30007146BDE8F08D24482849BDE8F08D921B1C
:101F400012153C2AC4BF204F244E10DCBAF1000FFA
:101F5000BEBF12F13C0F00273E4608DB624603F08D
:101F60007DFD21F00041FFF761FE07460E4694B16A
:101F7000012C08BF86F000460DD0194A194B022CDF
:101F80003846314615D004F02FF92A46BDE8F04D09
:101F9000114B04F029B9002213463846314603F0AC
:101FA000B5FE04BF0220FEF7E4FB38463146BDE82B
:101FB000F08D04F019F92A46BDE8F04D064B04F007
:101FC00021B800000000F07F182D4454FB2109C007
:101FD0005E5F0000FB21F9BFFB210940FB21F93FB7
:101FE000075C143326A6A13C10B56FF00400FFF780
:101FF00047FA094809490068B0FBF1F00849C0B246
:1020000000EB40020870C2EBC0104FF6FF7202EA0C
:10201000C000488010BD00000800002000127A00B7
:10202000520000200B49498848434FF0E0214861A5
:1020300000238B61086940F0010008610869C2074C
:1020400001D0C003FAD5086920F0010008618B6156
:1020500070470000520000200B49097848434FF0B8
:10206000E021486100238B61086940F001000861AC
:102070000869C20701D0C003FAD5086920F0010041
:1020800008618B61704700005200002008B560B104
:1020900020208DF8000028208DF8010030208DF8D8
:1020A000020038208DF8030004E0A32204216846D2
:1020B000FEF7B5FA6A46042140F69E2003F07CF94B
:1020C00002F040FE08BD00003EB5044602208DF837
:1020D0000000CA208DF80100E3208DF802000920DD
:1020E0008DF803006A460421682003F065F9A320F7
:1020F0008DF80000610609D5C0218DF80110C821B6
:102100008DF80210C2218DF8031005E08DF8010052
:102110008DF802008DF8030014F4C07F09D0C421AB
:102120008DF80410CC218DF80510C6218DF806100D
:1021300005E08DF804008DF805008DF806008DF897
:1021400008008DF807008DF809006A460A2140F65C
:10215000A72003F031F9A0074FF0D80503D02020C5
:102160008DF8000001E08DF800506A46012140F62C
:10217000B62003F021F9A00601D5012000E00020DF
:1021800000F090F814F4C07F1ED0E0050AD5B2200C
:102190008DF800008B208DF80100B6208DF802002C
:1021A0009B2009E0B0208DF8000080208DF8010010
:1021B000B4208DF8020090208DF803006A460421B7
:1021C00040F6A22003F0F8F8E0074FF40B6323D0A9
:1021D000F8208DF800006A460121184603F0ECF85B
:1021E000FA21072000F04AFB072000F015FB012030
:1021F00000F032FB642000F0D5FB4FF4FA7000F0E1
:10220000E1FBC821254800F0CFFA282000F0E4FACD
:102210000A2000F0F1FA06E08DF800506A4601212C
:10222000184603F0C9F8A00703D5D9208DF800009F
:1022300001E08DF800506A46012140F23D7003F044
:10224000BBF8600701D5012000E0002000F046F84F
:10225000E00601D5012000E00020FFF717FF104D38
:1022600044F00800688102F06DFD0020A87360064C
:1022700001D50620A87314F4C07F02D0A87B801D6E
:10228000A87314F0140F02D0A87B1030A873A00715
:1022900002D0A87B001DA87300203EBD09E3CA023E
:1022A000880000200EB54FF4976308B105A000E048
:1022B00007A007C88DE807006A460921184603F001
:1022C0007BF80EBDB8AAB38DB4980D355D00000043
:1022D000B8AAAAAAB088C3C5C700000008B560B1F3
:1022E000C0208DF80000C2208DF80100C4208DF8B8
:1022F0000200C6208DF8030004E08B22042168460A
:10230000FEF78DF96A46042140F6982003F054F850
:1023100002F018FD08BD0000C8234FF48062024996
:1023200040F6F63002F0EEBB486B00082DE9FF4F97
:1023300089B01646DDE916520024DFF854810F46B5
:1023400081462C80A24698F80E00694602F088FC6F
:102350004FF0FF3B18B158460DB0BDE8F08FB8F80C
:102360000A0010F0140F4CD0BDF800109DF80220A8
:1023700049BA090441EA022C9DF803104CEA010C09
:10238000C6F800C0BDF804109DF8062049BA09043B
:1023900041EA02239DF807100B437360BDF8081053
:1023A0009DF80A2049BA090441EA02219DF80B2050
:1023B0001B141143B160BDF80C209DF80E4052BAB9
:1023C000120442EA04229DF80F4009142243F260ED
:1023D0004FEA2C4612147643494303FB036302FB86
:1023E000021119441024A1F17061B1F1007F04D9E8
:1023F00002F0A8FCA5F800A0ADE7298841F480719F
:10240000298041066A460ED51119A41D0B885BBAB6
:102410003B804B885BBA7B80898849BAB980298820
:1024200041F00801298010F4C07F11D01119A41DBA
:102430000B885BBAA9F800304B885BBAA9F8023068
:10244000898849BAA9F80410298841F070012980C7
:10245000800718D01444E07800F0C00500F03F0178
:102460006078C00707D0C80801F00701D8F800203D
:10247000491C02B190476078000704D5D8F80410D1
:1024800009B1A80988470C9802F086F8002063E794
:10249000880000202DE9FF41054603A802F0E8F975
:1024A000BDF80C00460CC7032F48018901F003005A
:1024B00055F82020480700D55242C1F3C10055F815
:1024C0002040880600D56442C1F3811055F82030C1
:1024D000C80500D55B42A2FB0715D01700FB0750CB
:1024E00002FB0600820042EA9170A4FB0725E11777
:1024F00001FB075104FB06118C0044EA9271A3FB17
:102500000745DA1702FB075203FB0622930043EA52
:102510009472030E8DF80030030C8DF80130030A1D
:102520008DF802308DF80300080E8DF80400080CB9
:102530008DF80500080A8DF80600100E8DF80800C9
:10254000100C8DF80900100A8DF80A008DF807109C
:102550008DF80B206A460C214FF4257002F02CFFF9
:1025600004B0BDE8F08100008800002030B50446CA
:1025700013A185B007C98DE807004FF0FF35C82CBF
:1025800016D8C820B0FBF4F1491E080A8DF80C00DB
:102590008DF80D1003AA022140F2162002F00CFF64
:1025A00030B96A460C2140F6C12002F005FF10B197
:1025B000284605B030BD054884810020F9E70000B9
:1025C000FEF2ABC4AAF1DFDFBBAFDFDF8800002083
:1025D000F8B53049098901F0030250F822404A0752
:1025E00000D56442C1F3C10250F822308A0600D5FA
:1025F0005B42C1F3811250F82220C80500D5524237
:10260000254984FB0140850045EA947083FB014322
:1026100082FB0121950F45EA8105010E8DF800101E
:10262000010C8DF80110010A8DF80210A40F8DF82D
:10263000030044EA83046A4604214FF4747002F0F4
:10264000BBFE4FF0FF3688B9200E8DF80000200C3D
:102650008DF80100200A8DF802008DF803406A46CB
:1026600004214FF4757002F0A7FE08B13046F8BDA2
:10267000280E8DF80000280C8DF80100280A8DF82E
:1026800002008DF803506A4604214FF4767002F080
:1026900093FEF8BD8800002009E3CA022DE9FF413E
:1026A00004463CA002AB006802903BA00068039087
:1026B0003AA006683AA0056804F00300195C8DF89A
:1026C0000010C4F3C1015A5C8DF80120C4F38112DB
:1026D0009B5C8DF8023003AB185C8DF80400585CED
:1026E0008DF80500985C8DF806006A46032140F2DB
:1026F000264002F061FE4FF0FF37E0BB01AA032144
:1027000040F22A4002F058FEA8BBCDE90065600700
:102710000BD59DF8000040F001008DF800009DF8F9
:10272000040040F001008DF80400A0060BD59DF8D0
:10273000010040F001008DF801009DF8050040F017
:1027400001008DF80500E0050BD59DF8020040F072
:1027500001008DF802009DF8060040F001008DF8A0
:1027600006006A4603214FF4886002F025FE10B986
:1027700001AA032100E004E040F2314002F01CFE17
:1027800018B1384604B0BDE8F08106480481002045
:10279000F8E700004CCD6C000CC92C0036567600D2
:1027A00026466600880000204FF47A7290FBF2F013
:1027B00008B54843010E8DF80010010C8DF801108A
:1027C000010A8DF802108DF803006A4604214FF4C7
:1027D000AE7002F0F1FD08BD0521B0FBF1F008B5C7
:1027E000010A8DF800108DF801006A4602214FF4AD
:1027F000AD7002F0E1FD08BD0521B0FBF1F008B5B8
:10280000010A8DF800108DF801006A4602214FF48C
:10281000AC7002F0D1FD08BD08B500218DF80010A4
:10282000C10702D030218DF80010810705D59DF831
:10283000001041F00C018DF80010400705D59DF8FF
:10284000000040F003008DF800006A4601214FF4BB
:10285000A47002F0B1FD08BD08B560B1042800D92C
:102860000420401E8DF800006A46012140F24F10FE
:1028700002F0A2FD08BD0120F3E700002DE9FC41B4
:10288000054640074FF0FF367CD0B1F5C86F79D8C8
:10289000084603F03DFF3E4903F024FE074601A829
:1028A00001F0C8FF9DF80400022806D004280DD0CE
:1028B00008282ED0102865D134E00E21384604F0C7
:1028C000DCF803F0EDFE84B2324907E00D21384612
:1028D00004F0D3F803F0E4FE2F4984B2384603F045
:1028E0002BFF03F0DDFE210A8DF8001080B28DF879
:1028F0000140010A8DF802108DF80300E8076C46CC
:1029000020D0224602214FF4EA7002F055FDC8BBE8
:1029100011E00C21384604F0B0F803F0C1FE84B297
:102920001E49DBE70B21384604F0A7F803F0B8FE98
:1029300084B21B49D2E7A21C02214FF4927002F02C
:102940003BFDF8B9A8070DD56A4602214FF4EC709B
:1029500002F032FDB0B9A21C02214FF4947002F0D3
:102960002BFD78B9680710D56A4602214FF4EE7046
:1029700002F022FD30B9A21C02214FF4967002F041
:102980001BFD10B13046BDE8FC810020FBE70000D4
:1029900000004843000040460000C045000040459C
:1029A0000000C0440521B0FBF1F008B5010A8DF824
:1029B00000108DF801006A4602214FF4EF7002F01A
:1029C000FBFC08BD0521B0FBF1F008B5010A8DF84C
:1029D00000108DF801006A4602214FF4ED7002F0FC
:1029E000EBFC08BD01B581B00020ADF800009DF8FA
:1029F00005008DF800009DF804008DF80100BDF879
:102A000000000CBD00BA704704490A885206FCD584
:102A1000024AC1B2121D11807047000000480040F8
:102A20002DE9FC47054625486B46042240680D21E8
:102A30000078FEF7D2F910B10720BDE8FC879DF8B9
:102A400000001C2101EAD0029DF80300DFF870901D
:102A5000C0F301131A438DF804209DF80120C0F340
:102A6000810301EAD2021A438DF805209DF8022065
:102A700000F0030001EAD20101430024114F8DF858
:102A80000610A04601AE305D10B145F8249009E073
:102A900045F824800CE055F82400394603F04CFE3C
:102AA00045F82400305D401E10F0FF003055F2D193
:102AB000641CE4B2032CE6D30020BEE71C00002017
:102AC0007B14AE3E1D5A843F2DE9FE4F0546012082
:102AD000C14E8DF800004FF000088DF8018030687D
:102AE0000C461746817C70686B4602220078FEF720
:102AF00000FA4FF0FF3A00287AD1C820FFF792FA87
:102B00008DF8008030686B460122C17B70680078C8
:102B1000FEF7EFF90028EFD130686B4601224179CA
:102B200070680078FEF7E5F90028E5D130686B465B
:102B30000122817C70680078FEF7DBF90028DBD188
:102B400030686B460122C17D70680078FEF7D1F9CC
:102B50000028D1D130686B46012201797068007875
:102B6000FEF7C7F90028C7D14FF00C098DF8009087
:102B700030686B460122017970680078FEF7B9F978
:102B8000002835D10F20FFF74DFAB06A6B460122BD
:102B9000407A8DF800003068817870680078FEF720
:102BA000A8F9002824D1B06A6B460122007A8DF87A
:102BB00000003068417870680078FEF79AF90028C4
:102BC00073D1B06A807A0FB140F0E0008DF8000058
:102BD00030686B460122817970680078FEF789F9C8
:102BE000002862D12FB1B06AC07A40F0E00001E065
:102BF0004AE018208DF8000030686B460122C17948
:102C000070680078FEF775F9F0BB17B1C820FFF7C0
:102C100009FA40208DF8000030686B4601220179E6
:102C200070680078FEF765F970BB78208DF80000B9
:102C300030686B460122417970680078FEF759F9D7
:102C400010BB3220FFF7EEF98DF800803068474660
:102C50006B464179706801220078FEF74AF998B90D
:102C600031687068B046897A00786B460222FEF7B8
:102C7000B4F848B9BDF80000AF6040BAB0FBF9F055
:102C80006F60C6B22F6000E00FE0A760676027604A
:102C9000002739E0D8F80010D8F804006B46C97A4C
:102CA00000780C22FEF799F810B15046BDE8FE8F6F
:102CB000BDF80000236840BA02B2BDF802001A4411
:102CC00040BA01B2BDF804002260626840BA114403
:102CD0006160A16800B20844A060BDF806002B68DE
:102CE00040BA02B2BDF808001A4440BA01B2BDF8B9
:102CF0000A002A606A6840BA11446960A96800B293
:102D000008447F1CFFB2A860B742C3D3286883225F
:102D1000C117090441EA104100040023FDF77FFABE
:102D200032460023FDF77BFA286068688322C117CA
:102D3000090441EA104100040023FDF770FA32460D
:102D40000023FDF76CFA6860A8688322C1170904A4
:102D500041EA104100040023FDF761FA32460023E6
:102D6000FDF75DFAA86020684FF40065C1170904FB
:102D700041EA104100042A460023FDF750FA32468A
:102D80000023FDF74CFA206060682A46C117090449
:102D900041EA104100040023FDF741FA32460023C6
:102DA000FDF73DFA6060A0682A46C117090441EAB0
:102DB000104100040023FDF732FA32460023FDF7EC
:102DC0002EFAA060002802DDA0F5803001E000F5B9
:102DD0008030A060002069E71C0000202DE9F0474A
:102DE0000E4607004FF0000430D0002E2ED000F029
:102DF0000DF9054630683968DFF86C8041F270796A
:102E0000884208D0D8F80800291A494503D317A0EA
:102E1000FDF72AFA012470687968884208D0D8F84A
:102E20000800291A494503D315A0FDF71DFA01240E
:102E3000B068B968884210D0D8F80800291A494506
:102E40000BD314A0FDF710FA012407E016A0FDF73C
:102E50000BFA4FF0FF30BDE8F0871CB100F0D6F858
:102E6000C8F808002046F6E77800002076616C7507
:102E70006561636378204368616E6765640A00007A
:102E800076616C75656865617274204368616E6710
:102E900065640A0076616C756573706F32204368F3
:102EA000616E6765640A000067697A436865636BF1
:102EB0005265706F7274204572726F72202C2049B7
:102EC0006C6C6567616C20506172616D0A00000076
:102ED00070B50C46050014D09CB12A680021012071
:102EE00000F078FF20706A680021012000F072FF76
:102EF0006070AA680021012000F06CFFA070002023
:102F000070BD03A0FDF7B0F94FF0FF3070BD0000B9
:102F100067697A44617461506F696E747332526587
:102F2000706F727444617461204572726F72202CEC
:102F300020496C6C6567616C20506172616D0A009C
:102F40002DE9F041064600F061F80546204930467B
:102F5000FFF744FF1E4C313C04F12208012815D133
:102F60001CA0FDF781F941463046FFF7B1FF20B9BB
:102F700003224146042000F0C1FE3068C4F831004D
:102F80007068C4F83500B068C4F839001748B5FB5C
:102F9000F0F100FB1150002818D1154FF868A84235
:102FA00014D014A0FDF760F941463046FFF790FFBA
:102FB00020B903224146042000F0A0FE306844F806
:102FC000310F70686060B068A060FD60BDE8F0819E
:102FD000B90100206368616E6765642C20726570BA
:102FE0006F727420646174610A000000C0270900D8
:102FF00078000020496E666F3A20363030532072D8
:1030000065706F727420646174610A000148006821
:10301000704700007400002010B5134C94F83C0079
:10302000012819D194F83B00022816D2FFF7EEFFD1
:10303000D4F85610401AC8280ED9FFF7E7FF14F845
:103040003B3F0146D4F81B2008A0FDF70DF900F026
:1030500081FD2078401C207010BD03481F21BDE871
:1030600010403B30FDF7E3BA080100205761726E53
:10307000696E673A67697A50726F746F636F6C52EA
:103080006573656E64446174612025642025642045
:1030900025640A003EB5F8B10168009140680190CE
:1030A0009DF80400401C8DF804000520FFF79AFCF1
:1030B000ADF802000921684600F086FD8DF8080091
:1030C0000921684602F0F6FA040003D5014605A07E
:1030D000FDF7CAF820463EBD09A0FDF7C5F84FF040
:1030E000FF303EBD4552523A2075617274207772AE
:1030F000697465206572726F72202564200A000071
:103100004552523A2067697A50726F746F636F6CE0
:10311000436F6D6D6F6E41636B20646174612069F4
:103120007320656D707479200A0000003EB50D466D
:10313000040021D0684600F0A5F912208DF80400A3
:1031400060798DF805000620FFF74CFCADF8020011
:103150008DF808500A21684600F036FD8DF8090008
:103160000A21684602F0A6FA040003D5014605A02C
:10317000FDF77AF820463EBD09A0FDF775F84FF03F
:10318000FF303EBD4552523A20756172742077720D
:10319000697465206572726F72202564200A0000D0
:1031A00067697A50726F746F636F6C4572726F7279
:1031B000436D64204572726F72202C20496C6C65DF
:1031C00067616C20506172616D0A000010B59EB09D
:1031D00004004FD0684600F055F902208DF8040035
:1031E00060798DF8050026A02022D0E90010CDE9F5
:1031F000021026A0D0E90010CDE9041026A0D0E9E5
:103200000010CDE9081027A0D0E90010CDE9061084
:1032100027A10AA8FDF7D1F920222EA10DF1520015
:10322000FDF786F90020CDF84A00CDF84E009DF854
:10323000510040F002008DF851000020FFF7D2FB52
:10324000ADF848006F20FFF7CDFBADF80200732109
:10325000684600F0B9FC8DF872007321684602F0F0
:1032600029FA040003D5014623A0FCF7FDFF204600
:103270001EB010BD27A0FCF7F7FF4FF0FF30F7E7B7
:1032800030303030303030340000000030303030FA
:1032900030303032000000003033303330303030E6
:1032A0000000000030333031303130300000000099
:1032B0006334386164306134306230313435646392
:1032C00062326430363734336163383834633139CD
:1032D0000000000036616330316662363538326294
:1032E0003466373362306163653835386633373476
:1032F00061666635000000004552523A20756172E1
:1033000074207772697465206572726F722025640B
:10331000200A000067697A50726F746F636F6C47A0
:103320006574446576696365496E666F204572729F
:103330006F72202C20496C6C6567616C2050617243
:10334000616D0A002DE9F74F82B0002602988B4686
:1033500035460C46771E78B174B1049860B1029876
:1033600002F05CF8C0B25FEA000808D04FF0FF0935
:103370004FF0020A364F48E036A0FCF775FF38469A
:1033800005B0BDE8F08F01226946029802F07CF892
:10339000D0B37878FF2805D19DF80000FF2805D02C
:1033A00055282BD03878012817D027E0387858B125
:1033B000B888042822D9A84220D084F8009084F844
:1033C0000190A7F804A019E084F8009084F8019017
:1033D000A7F804A00120387010E0B8889DF800100C
:1033E0002154401C80B2B880042807D96088FFF7B8
:1033F000F9FA001D85B2B888A84208D09DF80000EF
:103400007870B878401CB870761C4645BBDBB9882C
:1034100004291AD9A94218D1204600F0D5FBB98851
:10342000214411F8011C81420CD12A4621465846FC
:10343000FDF77EF80498058000203870B880B870D9
:1034400078709DE76FF001009AE7012098E700008F
:103450007800002067697A50726F746F636F6C47F1
:1034600065744F6E655061636B6574204572726F51
:1034700072202C20496C6C6567616C205061726110
:103480006D0A000010B538B1002101604160FF21D4
:1034900001704170002010BD02A0FCF7E5FE4FF066
:1034A000FF3010BD4552523A2067697A50726F74EE
:1034B0006F636F6C48656164496E6974206865610B
:1034C0006420697320656D707479200A0000000023
:1034D0002DE9F0438DB0984617465FEA010906468C
:1034E0004FF0000525D0B8F1010F2AD0781D84B225
:1034F00023462A46394628A0FCF7B6FEFF208DF861
:1035000000008DF80100200A8DF802008DF80340BC
:103510003079401C8DF8040070798DF8050000208A
:103520008DF8060008208DF80780B8F1010F0CD047
:1035300016E023A0FCF798FE4FF0FF300DB0BDE879
:10354000F083357AE819801DD1E78DF808502A46B6
:1035500006F109010DF10900FCF7EAFF05F1090088
:103560006D4627B128443A464946FCF7E1FF211D44
:10357000684600F029FB2919C870211D684602F031
:1035800099F8010005D514A0FCF76EFE6FF001005C
:10359000D4E70020D2E700006C656E203D20256452
:1035A000202C20734469644C656E203D20256420E6
:1035B0002C646174615F6C656E203D2025640A0097
:1035C0005B4552525D202064617461204973204E36
:1035D000756C6C200A000000756172742077726946
:1035E0007465206572726F72202564200A000000E5
:1035F0002DE9F0470E00089C96F800801D461746FE
:103600004FF0FF3A03D015B10CB120B12CE023A04C
:10361000FCF72AFE19E012212C48FDF708F8404675
:103620004FF00008012806D04FF00309022805D00A
:10363000052819D11AE0C4F8008015E02349483163
:1036400001F10F00FFF744FC10B15046BDE8F087D0
:103650001E482630418CA5F8011090F82400E8702F
:1036600085F80090042020600020EFE717487A1EBC
:10367000711C4238FCF75CFF14487F1E5A3813490E
:10368000C0F82F7010F85A3F491C10225A5410F8F5
:103690001F19491CC17700F83B9CCCE767697A5039
:1036A000726F746F636F6C49737375656450726F7A
:1036B00063657373204572726F72202C20496C6CA5
:1036C0006567616C20506172616D0A0062010020C3
:1036D0002DE9F041050031D02889FFF783F98C4F9F
:1036E00028818C4E38784FF00208C0F38001287A88
:1036F00006F16D04C0F38002914241D042074FF0C1
:1037000000014FEAC07020D550B196F86C00015509
:1037100096F86C00401C86F86C007FA0FCF7A4FDB6
:10372000287A80072CD596F86C100120085596F859
:103730006C00401C86F86C007FA01FE085A0FCF7A1
:1037400093FD4FF0FF30BDE8F08150B196F86C006A
:10375000015596F86C00401C86F86C006EA0FCF7D2
:1037600083FD287A80070BD596F86C1001F8048049
:1037700096F86C00401C86F86C0082A0FCF774FD83
:103780003878297AC0F3C003C1F3C00293421BD03A
:1037900062F3C300387008070AD596F86C1003204E
:1037A000085596F86C00401C86F86C007CA009E077
:1037B00096F86C100420085596F86C00401C86F8AA
:1037C0006C007FA0FCF750FD3878297AC0F3001315
:1037D000C1F3001293421BD062F304103870C80684
:1037E0000AD596F86C100520085596F86C00401C18
:1037F00086F86C007AA009E096F86C10062008554F
:1038000096F86C00401C86F86C007DA0FCF72CFD3F
:103810003878297AC0F34013C1F3401293421BD089
:1038200062F34510387088060AD596F86C100720A8
:10383000085596F86C00401C86F86C0079A009E0E9
:1038400096F86C100820085596F86C00401C86F815
:103850006C007BA0FCF708FD7878697AC0F3C003A0
:10386000C1F3C00293421BD062F3C3007870080713
:103870000AD596F86C100B20085596F86C00401C81
:1038800086F86C0076A009E096F86C100C200855BC
:1038900096F86C00401C86F86C0078A0FCF7E4FCFD
:1038A0007878697AC0F30013C1F3001293421BD0F9
:1038B00062F304107870C8060AD596F86C100920D7
:1038C000085596F86C00401C86F86C0073A009E05F
:1038D00096F86C100A20085596F86C00401C86F883
:1038E0006C0075A0FCF7C0FC16F86C1F0D20085585
:1038F0003078401C3070687A00F0070186F851106B
:1039000074A0FCF7B1FC06F86C8C00201BE70000EB
:103910007E000020080100204F6E426F61726469D2
:103920006E673A20536F66744150206F722057655E
:1039300062206D6F64650A004F6E426F6172646948
:103940006E673A204169724C696E6B206D6F6465D9
:103950000A00000067697A50726F746F636F6C4D74
:103960006F64756C65537461747573204572726F02
:1039700072202C20496C6C6567616C20506172610B
:103980006D0A00004F6E426F617264696E673A2083
:1039900053746174696F6E206D6F64650A00000076
:1039A00057694669207374617475733A20696E2093
:1039B00062696E64696E67206D6F64650A0000005D
:1039C00057694669207374617475733A206F757412
:1039D0002062696E64696E67206D6F64650A00001D
:1039E00057694669207374617475733A20636F6E0A
:1039F0006E656374656420726F757465720A000089
:103A000057694669207374617475733A20646973E9
:103A1000636F6E6E656374656420726F7574657232
:103A20000A00000057694669207374617475733A1F
:103A300020636F6E6E6563746564206D326D0A007D
:103A400057694669207374617475733A20646973A9
:103A5000636F6E6E6563746564206D326D0A00007D
:103A600057694669207374617475733A2061707088
:103A700020636F6E6E6563740A00000057694669C3
:103A8000207374617475733A206E6F2061707020BA
:103A9000636F6E6E6563740A0000000057694669C3
:103AA000207374617475733A20696E207465737441
:103AB000206D6F64650A0000576946692073746160
:103AC0007475733A206F75742074657374206D6F0C
:103AD00064650A0052535349206973202564200A03
:103AE0000000000010B518B314498268134C41F867
:103AF0003E2FC2684A60028A0A81807C803C8872BC
:103B0000B4F8BE006234FEF76DFFA4F85C00606E8E
:103B1000FEF778FF6066227F04F11D000E2111542C
:103B2000207F401C2077042004F8620C002010BD88
:103B300003A0FCF799FB4FF0FF3010BD8801002077
:103B40004552523A204E545020697320656D70746E
:103B500079200A0010B50D4C94F83C00002813D0D1
:103B60000BA0FCF781FBB4F8541004F13D0001F008
:103B7000A1FDB4F85410814202D00DA0FCF774FBF3
:103B8000FFF744FAC4F8560010BD000008010020F9
:103B90005761726E696E673A2074696D656F7574EE
:103BA0002C20726573656E642064617461200A0064
:103BB0004552523A20726573656E64206461746187
:103BC000206572726F720A0010B503004FF000009A
:103BD00003D011B10222491E05E0002010BD9C5CFB
:103BE000521C2044C0B28A42F9D310BD70B50D46B4
:103BF000040016D01F210E48FCF719FD0C482A4678
:103C00002146801CFCF794FC094C01203B3CA4F8A5
:103C1000545004F83C0FFFF7F9F9C4F81A000020DB
:103C200070BD04A0FCF720FB4FF0FF3070BD00001A
:103C3000430100204552523A206461746120697347
:103C400020656D707479200A0000000010B50A49E3
:103C500058B109790079491C814204D106481F21D5
:103C6000801EFCF7E4FC002010BD04A0FCF7FCFA69
:103C70004FF0FF3010BD0000450100204552523A80
:103C8000206461746120697320656D707479200A05
:103C90000000000070B50D464FF0FF3458B10A46E1
:103CA0000146064801F02FFCA84203D004A0FCF70F
:103CB000DBFA204670BD09A0F9E7000013020020DE
:103CC0004552523A204661696C656420746F2072D7
:103CD000625772697465200A000000004552523A2A
:103CE0002067697A5075744461746120627566203A
:103CF000697320656D707479200A00007FB51646DF
:103D00000C0005462DD06846FFF7BCFB05208DF85A
:103D100004001A4850F8333F8DF805305B1C0360EF
:103D20008DF808500920FEF75DFEADF8020032461E
:103D300021460DF10900FCF7FBFB0D216846FFF75A
:103D400043FF8DF80C000D21684601F0B3FC040020
:103D50000DD501460AA0FCF787FA6FF0010004B008
:103D600070BD0EA0FCF780FA4FF0FF30F7E70D2191
:103D70006846FFF73BFF2046F1E7000008010020FE
:103D80004552523A207561727420777269746520C9
:103D90006572726F72202564200A000067697A528A
:103DA00065706F727444617461204572726F722025
:103DB0002C20496C6C6567616C20506172616D0AE2
:103DC0000000000002480168491C016070470000C3
:103DD00074000020511AB1FBF0F070477FB5060067
:103DE0004FF000050C4601D0002C32D14FF0FF30CF
:103DF00004B070BD70194078112828D2DFE800F0B7
:103E00002727272727272727272727272709101D81
:103E10000C00217811A018E013A0FCF725FA16E099
:103E20002079A2796179A3688DE80F00E378A27800
:103E3000218812A0FCF718FA09E01BA0FCF714FA7D
:103E40001EA0FCF711FA217820A0FCF70DFA6D1CDA
:103E5000EDB23078A842CDD80020C9E7525353497B
:103E60002025640A000000005452414E5350415234
:103E7000454E545F44415441200A00005749464989
:103E80005F4E5450203A205B25642D25642D256417
:103E900020253032643A253032643A253032645D70
:103EA0005B25645D200A00004D4F44554C45204978
:103EB0004E464F202E2E2E0A000000005749462065
:103EC0004D4F44554C45202E2E2E0A006D6F6475C3
:103ED0006C6554797065203A205B25645D200A008A
:103EE0002DE9F0438FB04FF000055FEA0009ADF80F
:103EF00034502F460E950ED0FFF78EF8744E0DAA53
:103F0000711C06F20B10FFF71DFA06F1CA0850B13A
:103F1000801C6FD095E06FA0FCF7A6F94FF0FF3042
:103F20000FB0BDE8F08375A0FCF79EF97079741CA2
:103F30000F284CD00ADC0E2816D2DFE800F0151B43
:103F4000151F1515443915154415443D182857D02B
:103F500006DC112875D014284DD0162804D132E083
:103F6000222855D02A282ED002212046FFF7DEF83D
:103F700067A064E02046FFF729F962E0E279A179C1
:103F800069A0FCF771F90EA8BDF83420009006F185
:103F9000090101AB3846093AFFF72AFB002850D146
:103FA000E37901A920460E9AFFF792FA62A046E053
:103FB0002046FFF76FF844E02046FFF76BF82046F5
:103FC000FFF786FB3DE02046FFF740FE39E0204644
:103FD000FFF760F85BA0FCF747F9FFF717F8044616
:103FE0004FF41677FFF712F8001BB842FAD900F029
:103FF000C1FA26E02FE02046FFF728FE56A01EE07B
:104000002046FFF723FE2046FFF76CFD5AA016E07E
:104010002046FFF71BFE412204F108014046FCF751
:1040200087FA2B4896F8902091300F21115496F87A
:104030009000401C86F890000520307054A0FCF7DA
:1040400013F9234C30785A3406282AD2DFE800F0DE
:10405000290D13212E36701C0121FFF767F853A09C
:10406000FCF702F96FF001005AE719490C2235708C
:10407000A531204606E016493570BD31A1F1510049
:1040800001220446FFF7AAFE12212046FCF7CFFAD0
:1040900007E00F493570D6F82F2018312046FFF77A
:1040A0009DFE4846FEF74CFF002039E708490C22E8
:1040B000BE31A1F1400035700446E3E70448357095
:1040C0009030412241460446FFF788FE4121DCE75B
:1040D0000801002047697A7769747348616E646CDF
:1040E00065204572726F72202C20496C6C65676187
:1040F0006C20506172616D0A0000000047657420F9
:104100004F6E65205061636B6574210A00000000EA
:104110004552523A20636D6420636F646520657276
:10412000726F72210A000000666C6167202578209A
:104130002578200A0000000041636B44617461200F
:104140003A200A007265706F72743A4D43552072BE
:1041500065626F6F74210A0041636B2050524F44B7
:10416000554354494F4E5F4D4F444520737563632B
:10417000657373200A00000041636B204745545F5C
:104180005554542073756363657373200A000000EF
:1041900041636B204745545F4D6F64756C652073B8
:1041A000756363657373200A000000004552523A3C
:1041B00020636865636B2073756D206572726F7222
:1041C000210A00000A4810B52E21016000F11001FB
:1041D000C16001F050F948B106A0FCF745F8BDE810
:1041E000104040F20B110848FCF721BA07A0F4E791
:1041F0001302002072624372656174652046616932
:104200006C64200A00000000080100207262437202
:10421000656174652053756363657373200A0000DC
:10422000F0B506460024354D092787B0062E5FD22B
:10423000DFE806F0030D0D3454596846FFF722F904
:104240000B202FE001462EA0FCF70EF843E003A858
:10425000FFF718F98DF8107055F8330F8DF811002D
:10426000401C28608DF814600620FEF7BBFBADF8FB
:104270000E000A2103A8FFF7A7FC8DF815000A21FC
:1042800003A801F017FA040003D501461CA0FBF7B0
:10429000EBFF0A2103A8FFF7A9FC2CE06846FFF713
:1042A000F1F813208DF8040055F8330F8DF8050050
:1042B000401C28600520FEF795FBADF8020009219F
:1042C0006846FFF781FC8DF808000921684601F077
:1042D000F1F90400B6D409216846DCE76846FFF727
:1042E000D1F81520DEE76846FFF7CCF82920D9E79A
:1042F0000AA0FBF7B9FF07B02046F0BD0801002077
:104300004552523A20756172742077726974652043
:104310006572726F72202564200A00004552523A7D
:10432000204366674D6F6465206572726F72210A63
:10433000000000002DE9F84F82462F4889460025ED
:1043400040686B46032200780D21FCF746FD10B152
:104350000720BDE8F88F9DF80000002400F01F0042
:104360008DF800009DF801006F4600F01F008DF8E9
:1043700001009DF802004FF0010800F01F008DF8C9
:1043800002005AF8241059F82400081A00D54042B7
:1043900002F0A6F96FF00F0102F06FFB0646385DE0
:1043A000E0B1164ADFF858B004E05946104602F072
:1043B000C3F90246385D401E10F0FF003855F4D1B5
:1043C0001146304602F08EF84FF07E5102F080FA2E
:1043D0000C4920F00040884205DC07E00A483044E0
:1043E000B0F1D97F02D908FA04F00543641C032C0C
:1043F000C7DB2846ADE700001C0000200000C841D4
:1044000054E3853F295C0F3E0000E0BE00B5024644
:1044100000F00DF80346D01C00F009F843EAC00391
:10442000901D00F004F843EA801080B200BD90F9BE
:104430000010002902DD4FF00000704702DA4FF053
:104440000400704790F90110002902DD4FF00100CF
:10445000704702DA4FF00500704790F9020000281B
:1044600002DD4FF00200704702DA4FF0060070479D
:104470004FF00700704700001FB5FDF70FF84FF42D
:10448000A060FCF793FDFDF7AFFD4FF416542046F6
:1044900001F03EF9FCF724FC00F07AF90028FBD18A
:1044A000FCF7ACFDFCF78CFD28A206210020FCF7F0
:1044B000DAFE40F2E7314720FDF72CF825480021CD
:1044C000016041608160204601F072F9FFF77AFED9
:1044D0004FF4FA70FDF7A6FD0120FFF7A1FE1E4D77
:1044E0001E4E102403AA02A901A800F083F878B98F
:1044F0001B4A911E881EFCF7A9FA19480323001FC6
:104500000621B0F90020C28050200094FCF77AFE0A
:10451000002114A20846FCF7A6FE009403232A7883
:1045200000216420FCF76EFE01F096F90948FFF7C0
:10453000D7FC0EA204210620FCF795FE009403236D
:10454000327804216420FCF75DFECBE74143433A17
:1045500000000000FC00002058000020590000204E
:10456000040000206865617274733A0053706F3202
:104570003A000000012080F3138805480168054ACD
:1045800001F4E06111430160BFF34F8FFEE70000CB
:104590000CED00E00400FA05704700002DE9F04141
:1045A000134D20F00104002695F8240010B10020DE
:1045B000BDE8F081A87A4FF0FF3838B120402F7C59
:1045C0002874A04200D0464624B901E04046EFE7F7
:1045D000287D40B1012001F01DF83CB100F0B2FB94
:1045E00020B12F74F2E7002001F014F83046DFE725
:1045F0001C0000202DE9F74F8EB00CA906A8CDE9CC
:1046000000010BAB02AA09A907A8FDF78FFE18B19C
:10461000012011B0BDE8F08FBDF81800C0057DD5B0
:10462000029802F05DF86FF01D04214602F025FAB1
:104630008146039802F054F8214602F01EFA8046A3
:10464000049802F04DF8214602F017FA0646059844
:1046500002F046F8214602F010FA8246012148464F
:1046600002F00BFA0746314602F066F804464FF0B6
:104670004041404602F060F80546514602F05CF8C1
:10468000214601F0C7FE01F099FEFDF797F94FF0C2
:10469000663B5A463D4B01F0B7FB01F0F1F80E992D
:1046A00008600121304602F0E8F93146009002F03E
:1046B00043F804462846414602F03EF8214602F0FF
:1046C00007F94FF07E5101F0A5FE01F077FE044698
:1046D0000D463846414602F02FF8074651460098ED
:1046E00002F02AF8394601F095FE01F067FE2246F5
:1046F0002B46FDF7ABFB5A46244B01F085FB01F03E
:10470000BFF80F9908605146084602F015F80746B1
:104710003146084602F010F8054600E034E0414614
:10472000084602F009F804464946084602F004F833
:10473000214601F06FFE294602F0CAF8394602F020
:10474000C7F801F03BFE04460D465146484601F0CD
:10475000F3FF07463146404601F0EEFF394601F0CF
:1047600059FE012102F089F901F028FE22462B466C
:10477000FDF76CFB5A46054B01F046FB01F080F853
:1047800010990860002044E7022042E766A64C40EA
:1047900010B5FCF79BF900F0F1F808B10A2010BD44
:1047A000782000F0ADFD10F0FF0F01D0012010BD0A
:1047B0007820FFF7F3FE10F0FF0F01D0022010BDAC
:1047C000642000F061FD10F0FF0F01D0032010BD48
:1047D000FDF7A2FD10F0FF0F01D0042010BD14481A
:1047E000FFF714FEFDF75AFF10F0FF0F01D0052070
:1047F00010BD40F27310FDF767FC10F0FF0F01D001
:10480000062010BD6420FDF7B1FE10F0FF0F01D0AF
:10481000072010BD00F0BEFE08B1082010BD012029
:1048200000F058FC10F0FF00F8D0092010BD000087
:10483000480000200D4A517A41B1012908D00229CF
:104840000FD003290FD04FF0FF307047022100E056
:1048500004210170D17C11B1017849000170002060
:1048600070470821F5E71021F3E700001C00002045
:104870000F4A517A41B1012909D0022911D00329E7
:1048800012D04FF0FF3070474FF4804101E041F605
:104890009C710180D17C11B1018849080180002000
:1048A00070474FF48051F4E74FF40061F1E70000E6
:1048B0001C0000200B49097A39B1012907D00229CF
:1048C0000AD003290BD0002103E0FA2101E04FF4C4
:1048D000FA710180002070474FF47A71F9E74FF4C4
:1048E000FA61F6E71C0000200A49097A41B1012962
:1048F00008D002290AD003290AD04FF0FF307047B0
:10490000054900E005490160002070470449FAE7C5
:104910000449F8E71C000020000003430000834224
:1049200033330342333383410C49C97A072913D205
:10493000DFE801F01204060A0C0E1000BC2100E0B2
:1049400062210180002070472A21FAE71421F8E74C
:104950000A21F6E70521F4E70021F2E71C00002018
:10496000054991F8242012B14FF0FF307047C989F2
:1049700001800020704700001C0000202DE9FC4150
:104980004C4C80208DF8000020686B460122817C11
:1049900060680078FCF7ADFA4FF0FF37002832D19D
:1049A0006420FDF73FFB00258DF8005020686B4622
:1049B0000122817C60680078FCF79BFA002870D1A6
:1049C00020686B460622817D60680078FCF705FA56
:1049D000002866D19DF805009DF80310C007400F20
:1049E00001F0010140EA41019DF801004FF001068C
:1049F00000F00100014309D0012905D0022915D09A
:104A00002DA0FBF731FC4CE0E67410E020686B460B
:104A10000122C17860680078FCF7DFF940BB9DF89F
:104A2000000010F00F0020D0042822D0E574FF20F1
:104A300004F80A0F4FF6FF7104F8020C04F8010C99
:104A40006070A180A0712072A67026766576E572EE
:104A5000A572E56025616561A576E576A5834FF4CD
:104A6000FA6000F073FB18B907E01D48FBF7FCFB88
:104A700017E01CA0FBF7F8FBC6E7022000F088FA5D
:104A800078B92A2000F0CAFB58B9322000F0FCFBAC
:104A900038B90020FFF782FD18B9002000F0ACFA09
:104AA00010B13846BDE8FC81002000F029FC002050
:104AB000F8E700001C000020556E737570706F726F
:104AC00074656420736F6674776172652070726FAD
:104AD00064756374207265762025642E0A000000D8
:104AE000587E000848616C662073656E736974694E
:104AF00076697479207061727420666F756E642EA9
:104B00000A0000002DE9FF4FDFF898A0054685B0A8
:104B10009AF82500914688464FF0FF3BC0BBB8F19C
:104B2000000F35D000241FE0281B102800DD1020C6
:104B300086B208EB04073A463146204600F03CFCBA
:104B400030BB6A463146204600F0D2F800BB3846FA
:104B500032466946FBF7C0FC20B16FF0010009B096
:104B6000BDE8F08FA01984B2AC42DDD34FEA192022
:104B70008DF810008DF81190DAF80000544604AB5F
:104B8000817EDAF8040002220078FCF7B2F908B15D
:104B90005846E4E7012084F825000898E0840020C6
:104BA000DDE700001C0000202DE9F84304464FF02B
:104BB000FF39282844D80727284D00267CB101203A
:104BC00000F0FAFA20208DF800004FF00108012CC7
:104BD00017D0052C18D88DF8018005201FE0002083
:104BE00000F0EAFA8DF800608DF8017028686B46D5
:104BF0000222817C68680078FCF77BF900BB2E7587
:104C000029E08DF80160E8E7142C04D802208DF823
:104C100001000A2003E003208DF80100142000F0B9
:104C2000FDFA9DF801006B4607EB80108DF801003E
:104C300028680222817C68680078FCF75AF910B174
:104C40004846BDE8F8830820A8722E7385F81480C2
:104C50000020FFF7A3FC0020F3E700001C00002069
:104C60002DE9F843214E0546174696F8240089465B
:104C70004FF0FF3890B3B07A80B330686B460222B1
:104C8000817A70680078FCF7A8F838BBBDF800009E
:104C900044BAAC4202D2002038701FE070684188EC
:104CA000B4EB510F11D9316800786B46497C012271
:104CB000FCF793F890B99DF80000C00605D500F008
:104CC00041F86FF00100BDE8F8833068EAB24B4666
:104CD000C17A70680078FCF780F808B14046F2E7C6
:104CE000B4FBF5F0401E38700020ECE71C000020FB
:104CF000F8B517000D464FF0FF341FD0104EB17AB3
:104D0000E1B1010A8DF80010C0B28DF8010041191F
:104D100070684289914211D8316800786B46097EEB
:104D20000222FCF7E6F848B93068EAB23B46417D1A
:104D300070680078FCF751F8002800D02046F8BDD4
:104D40001C000020F8B5554D4FF0FF36A87A00281A
:104D50007ED000248DF8004028686B460122C17B7C
:104D600068680078FCF7C5F8002871D128686B46A0
:104D70000122417968680078FCF7BBF8002867D108
:104D800028686B460122017968680078FCF7B1F861
:104D900000285DD195F82400E0B30C208DF80000C8
:104DA00028686B460122017968680078FCF7A1F851
:104DB000002871D13220FDF735F9C0208DF80000B0
:104DC000A87AC00702D0E0208DF8000028686B4662
:104DD0000122017968680078FCF78BF800285BD124
:104DE000687C18B102208DF8000001E08DF80040C9
:104DF00028686B460122C17B68680078FCF779F867
:104E000030BB8DF8004028686B4601224179686804
:104E100000783DE0FFE704208DF8000028686B462D
:104E20000122017968680078FCF763F880B9A87CF2
:104E300088B9A87AC0070ED060208DF800002868D5
:104E40006B460122017968680078FCF752F800E0AF
:104E500022E008BB01E04020EFE73220FDF7E2F856
:104E6000687C18B101208DF8000001E08DF8004049
:104E700028686B460122C17B68680078FCF739F826
:104E800050B92868054B01224179686810330078D1
:104E9000FCF72FF8002800D03046F8BD1C00002099
:104EA0002DE9F047394E82468AB096F824000F4625
:104EB00020B1002000F00EF9012500E0002507A830
:104EC000FFF7F8FC06A8FFF7B5FC09A8FFF72CFDD3
:104ED00008A8FFF745FD96F80A9096F81080002480
:104EE000002239465046FDF7EFFD10B1641C022C3C
:104EF000F6DB022C1AD00024012203A96846FDF734
:104F0000E3FD10B1641C022CF6DB022C0ED003A9C9
:104F10003846FCF715FDC7B269465046FFF70AFA56
:104F200010F0FF0F4FF0000402D002E0002403E075
:104F300001240FB944F00204FF2030727072F07245
:104F40004FF6FF71F181B072307401203073BDF8FB
:104F50001C0000F0FBF89DF8180000F019F8BDF8EF
:104F6000240000F05BF9BDF8200000F08DF9484600
:104F700000F0C6F94046FFF711FB15B1012000F023
:104F8000A9F80AB02046BDE8F08700001C00002008
:104F900038B5184C4FF0FF35A17A19B3022806D066
:104FA000042806D008280ED010281BD10DE00020C0
:104FB00000E008208DF80000607A9DF80010B0EB4A
:104FC000D10F04D005E01020F4E71820F2E700200C
:104FD00038BD20686B460122C17960680078FBF714
:104FE00088FF08B1284638BD9DF80000C0086072EF
:104FF000EDE700001C000020F8B5354D0446A87C04
:10500000A04201D10020F8BD31484FF0FF366B4679
:10501000D0E900104FF001020979007834B3FBF7B2
:10502000DCFE70BB9DF800006B4620F020008DF880
:10503000000028680122017968680078FBF759FFB1
:10504000F8B90320FCF7EEFF02208DF8000095F878
:10505000220078B382202BE028686B460122017D74
:1050600068680078FBF745FF58B92EE0FBF7B5FEFE
:1050700038B9A87AC0079DF8000003D040F020009E
:1050800002E00CE020F020008DF8000028686B465C
:105090000122017968680078FBF72BFF08B13046E0
:1050A000F8BD0320FCF7BEFF95F8220000B1802078
:1050B0008DF8000095F823000028CDD09DF8000061
:1050C00040F030008DF80000C6E7AC749AE70000AD
:1050D0001C00002038B51C4C94F8241081421DD0CF
:1050E000002500B394F82500D0B1002000F092FA1A
:1050F0000020FFF781FFE08C00F0C6F88DF800502B
:1051000060686B46012200782321FBF7F2FE012044
:1051100084F8240000F07EFAFFF714FE002038BD6A
:105120004FF0FF3038BD002000F074FA207C8DF87D
:10513000000060686B46012200782321FBF7D9FE4E
:1051400084F82450E8E700001C00002038B5194C12
:105150004FF0FF35A17A31B3FA2809D0B0F5FA7FC4
:1051600008D0B0F57A7F0FD0B0F5FA6F1BD10DE003
:10517000002000E008208DF80000207A9DF8001043
:10518000B0EBD10F04D005E01020F4E71820F2E7CF
:10519000002038BD20686B46012281796068007864
:1051A000FBF7A7FE08B1284638BD9DF80000C008EF
:1051B0002072EDE71C00002038B5174D044695F825
:1051C0002300A04201D1002038BD0CB1302000E006
:1051D00000208DF80000A87C28B19DF8000040F068
:1051E00002008DF8000095F8220028B19DF800001B
:1051F00040F080008DF8000028686B460122017D98
:1052000068680078FBF775FE10B14FF0FF3038BDCD
:1052100085F82340D7E700001C00002038B5194C62
:105220004FF0FF35A17A31B3BC2801D3012010E043
:10523000622801D302200CE02A2801D3032008E0D1
:10524000142801D3042004E00A2801D3052000E03B
:1052500006208DF80000E07A9DF80010884201D108
:10526000002038BD20686B46012281786068007894
:10527000FBF73FFE08B1284638BD9DF80000E072FC
:10528000EEE700001C000020F8B51C4D04464FF06E
:10529000FF37A87A28B395F8240010BB287D48B1C1
:1052A0002CB1282C03D8E0B2FFF77EFC24E00020CC
:1052B000FFF77AFC4FF47A76042C01D2042402E042
:1052C000B44200D93446B6FBF4F0401E8DF800001D
:1052D00028686B460122417868680078FBF709FE70
:1052E00008B13846F8BD9DF80000401CB6FBF0F050
:1052F000E8814008FFF792FF0020F8BD1C00002065
:10530000F8B5044610F0700F4FF0000601D00120F0
:1053100004E014B18DF8006002E040208DF8000038
:10532000244D6B4601222868817C68680078FBF771
:10533000E0FD4FF0FF3760BB9DF8000020F040001B
:1053400028738DF80060600602D404208DF80000F8
:10535000A00605D49DF8000040F002008DF8000082
:10536000E00605D49DF8000040F001008DF8000033
:10537000200705D49DF8000040F038008DF80000AB
:1053800028686B460122C17C68680078FBF7B1FD94
:1053900010B1AE723846F8BD24B1082C02D00020FE
:1053A000FFF70AFFAC722E753220FCF73BFE00209F
:1053B000F8BD00001C000020F8B517000D464FF0A6
:1053C000FF341FD0104EB17AE1B1010A8DF8001000
:1053D000C0B28DF80100411970684289914211D81C
:1053E000316800786B46097E0222FBF782FD48B9DE
:1053F0003068EAB23B46417D70680078FBF779FD82
:10540000002800D02046F8BD1C00002003460120E3
:1054100000E05843491EC9B2FBD2704700B50100F5
:1054200006D04A688868824205D14FF0000000BD6E
:105430004FF0FF3000BD02D2A0EB020000BD0846D5
:1054400000F013F84A688968511A401A00BD00B587
:10545000010007D000F009F803460846FFF7DEFF19
:10546000181A00BD4FF0FF3000BD08B1006870474A
:105470004FF0FF30704720B1C1684160816000206B
:1054800070474FF0FF3070472DE9F041040015469A
:105490000F464FF0FF3020D0002F1ED06068A1686B
:1054A0008842204609D2FFF7B9FFA84203D8204618
:1054B000FFF7B4FF0546616807E0FFF7D6FF6168B4
:1054C000E2688A1A801AA84209D92A463846FBF7A8
:1054D0002FF86068284460602846BDE8F0812046C7
:1054E000FFF7C3FF6168E2688A1A861A32463846B7
:1054F000FBF71EF8E0686060AA1BB9192046FFF7A9
:10550000C3FF3044E9E72DE9F04115460F4604009A
:1055100008D03FB1FFF79BFFA84206D86FF001000B
:10552000BDE8F0814FF0FF30FAE76168A068814282
:1055300029D82046FFF799FF0146A068E268821A41
:105540008E1AB54212D82A463946FAF7F1FFA068FA
:105550002844A0602046FFF788FF0146E068A26863
:105560000144914200D1A0602846D9E7324639462D
:10557000FAF7DEFFE068A060AA1BB9192046FFF722
:10558000C2FF3044CCE72A463946FAF7D1FFA0687B
:105590002844E8E710B588B002A905A8FFF780FC09
:1055A000032802D0012008B010BD6846FFF79CF91F
:1055B000059801F095F800990C4601F0BDF801F04E
:1055C00053F80590069801F08BF8214601F0B4F8E5
:1055D00001F04AF80690079801F082F8214601F0A0
:1055E000ABF801F041F8079005A8FCF7F1FF01A81E
:1055F000FFF73EF9BDF80400029941430291039977
:10560000414303910499414302A80491FCF742FFEE
:105610000020C8E7F8B5134C0023224694F8246014
:10562000D2E900125D1E56B190B102200DE0107853
:10563000C97B6B460122FBF75CFC60B90DE0A67AE2
:105640004EB128B1607C58B901208DF80000EEE71A
:105650008DF80030EBE72846F8BD9DF80000607437
:105660000020F8BD1C0000202DE9F04106460F4641
:1056700000F0D4FC041E0D4618BF0120284320F082
:105680000040C0F17F6000F1E040C00F0ED0301C40
:1056900018BF0120384320F00040C0F17F6000F1C6
:1056A000E040C00F04BF0120FBF763F82046294605
:1056B000BDE8F0812DE9F0410F4605004FF00004F0
:1056C00001D0124E1DE04FF0FF30BDE8F081295DA2
:1056D0003046FCF7ABF880213046FCF70FF8002885
:1056E000F9D0022C0CD3285DFF2809D15521304672
:1056F000FCF79CF880213046FCF700F80028F9D030
:10570000641CBC42E3D33846DFE700000048004099
:1057100070B5054686B0012144F20400FBF704FE93
:105720004FF40070ADF8100003248DF812401820DB
:105730001D4E8DF8130004A93046FBF707F930150C
:10574000ADF8100004208DF8130004A93046FBF7D3
:10575000FDF825208DF814008DF815408DF81640C1
:1057600001208DF8170005A8FBF7EEFB0020ADF82F
:105770000400ADF80600ADF80800ADF80C000C20F0
:105780000A4CADF80A00009569462046FBF7F4FF85
:10579000012240F225512046FBF7D6FF0121204689
:1057A000FBF7A2FF06B070BD0008014000380140C1
:1057B00070B5054686B001210820FBF7B5FD012133
:1057C0008804FBF7A5FD4FF48060ADF810000324BA
:1057D0008DF8124018201E4E8DF8130004A9304693
:1057E000FBF7B4F8F014ADF8100004208DF81300A6
:1057F00004A93046FBF7AAF827208DF814008DF88D
:1058000015408DF8164001208DF8170005A8FBF70C
:105810009BFB0020ADF80400ADF80600ADF80800D1
:10582000ADF80C000C200B4CADF80A000095694651
:105830002046FBF7A1FF012240F225512046FBF74D
:1058400083FF01212046FBF74FFF06B070BD00002B
:10585000000C0140004800400548B0F90010054820
:105860000160054909784160044909788160704701
:1058700000000020FC0000205800002059000020FB
:1058800021F00042A2F16052B2F5801F01F0004306
:1058900028BFD2F17F6C0BD95FEA001C43EAC20239
:1058A00042EB507018BF704728BF20F001007047CE
:1058B000B2F5801FBCBF184670474FEA410C1CF57B
:1058C000001F02D2084600F0FEBF70B500F046FB94
:1058D00000000089FFF7F6BF4FF00040A0F5800000
:1058E0007047000010B591EA030F48BF83F00043F2
:1058F00000F18284841A71EB030C05D2121943EB78
:105900000C03001B61EB0C01DFF824E14FEA11549A
:10591000A4EB135C1EEA430F18BF9EEA445F73D0EA
:1059200023EA0E03DCF1200E21EA045143F4801334
:1059300032D322FA0CFE10EB0E0023FA0CFE41EBE0
:105940000E01CCF1200E03FA0EFE10EB0E0051F109
:105950000001B1F5801FCCF1200E32D201EB0451D1
:1059600012FA0EF2BDE8104058BF7047401C38BF15
:105970005FEA420218BF7047002814BF20F0010000
:1059800041F100014FEA410313F5001F38BF704792
:10599000A1F1C04100F030BB012A43EB0302ACF19E
:1059A000200CDCF11F0E32BF4FF0000E23FA0CF377
:1059B00010EB030041EB0451B4EB115FD0D0A1EB2D
:1059C000045101F5801149085FEA300001EB0451F0
:1059D0000ED350F1000038BF12FA0EFE08D1BDE818
:1059E0001040C9E7401C38BF5FEA4202CAD1C3E792
:1059F000BDE810404FEA410313F5001F38BF704760
:105A0000A1F1C04100F0F8BA9EEA445F08D011EA63
:105A10005E0FBDE8104004BF01F000410020704758
:105A2000BDE8104070B500F099FA00BF64FBBE3EBF
:105A30000000E0FF02494FF0000000F0BEBF00BFD1
:105A40000000F87F491058BFC1F140415B1058BFBA
:105A5000C3F140438B42EFF3008070472DE9C04112
:105A600030B4DFF8A0C23CEA111418BF3CEA1314AA
:105A700000F0EC8081EA03051CEA111444EAD574B5
:105A800018BF1CEA131500F0C780A4EB05044FF003
:105A9000004545EAC12145EAC32341EA505143EAA2
:105AA000525304F17F74994204F500344FEAC02048
:105AB0004FEAC22208BF904200F09C804FEA136573
:105AC0000FF24016765D4FEA134506FB05F7C7F166
:105AD000807706FB07F74FEAD737A7FB03687642C4
