:020000040800F2
:1000000080280020CD01000877080008E3040008DC
:100010007508000899020008AD0C000800000000F7
:10002000000000000000000000000000A10900081E
:100030009B02000800000000F1080008650A0008A3
:10004000E7010008E7010008E7010008E7010008F0
:10005000E7010008E7010008E7010008E7010008E0
:10006000E7010008E7010008E7010008E7010008D0
:10007000E7010008E7010008E7010008E7010008C0
:10008000E7010008E7010008E7010008E7010008B0
:10009000E7010008E7010008E7010008E7010008A0
:1000A000E7010008E7010008E7010008E701000890
:1000B000E7010008B90A0008E7010008E7010008A5
:1000C000E7010008E7010008E7010008E701000870
:1000D000E7010008FD0A0008E7010008E701000841
:1000E000E7010008E7010008E7010008E701000850
:1000F000E7010008E7010008E7010008E701000840
:10010000E7010008E7010008E7010008E70100082F
:10011000E7010008E7010008E7010008E70100081F
:10012000E7010008E7010008E7010008E70100080F
:1001300000F002F800F03AF80AA090E8000C8244BF
:100140008344AAF10107DA4501D100F02FF8AFF29C
:10015000090EBAE80F0013F0010F18BFFB1A43F0A5
:10016000010318473C2A00005C2A0000103A24BF13
:1001700078C878C1FAD8520724BF30C830C144BF0C
:1001800004680C607047000000230024002500264E
:10019000103A28BF78C1FBD8520728BF30C148BFEA
:1001A0000B6070471FB51FBD10B510BD00F046F8BD
:1001B0001146FFF7F7FF01F09BF800F064F803B475
:1001C000FFF7F2FF03BC00F059FE0000094880472A
:1001D00009480047FEE7FEE7FEE7FEE7FEE7FEE729
:1001E000FEE7FEE7FEE7FEE704480549054A064B41
:1001F00070470000690A00083101000880220020D1
:100200008028002080240020802400207047704730
:1002100070477047704710B500F008F8006810BDCF
:1002200010B5044600F002F8046010BD00487047A5
:100230002022002000487047202200207546FFF74A
:10024000F9FFAE4605006946534620F00700854693
:1002500018B020B5FFF7C8FFBDE820404FF00006FA
:100260004FF000074FF000084FF0000B21F007019E
:10027000AC46ACE8C009ACE8C009ACE8C009ACE8E1
:10028000C0098D46704710B50446AFF30080204684
:10029000BDE81040FFF793BFFEE770472DE9F04738
:1002A0000D46089F81461C4616463946104602F008
:1002B0007BF880462146284602F076F8414602F057
:1002C000C7F980462146304602F06EF804463946AA
:1002D000284602F069F8214601F094FEC9E9008041
:1002E000BDE8F0872DE9F04F0546002089B04FF4B6
:1002F000807440F2FF16024682420FDA05EBC0011D
:10030000D1E90037CDE9043705EBC203D3E9007C1E
:10031000C1E9007CDDE90417C3E90017214603E0C9
:10032000401A01EBD17149108142F9DD521C084499
:10033000B242E1DB4FF40070012100E0491C00EB08
:10034000D070401006910128F8D166E0A8F10101B3
:10035000022000FA01FA0AEBDA704FEA60094FF066
:100360007E50029000200390484601F0A2FB024616
:100370000B462D482D4901F0D9F90E46044600F0F0
:1003800097FC01F0E5F801902046314600F09EFC14
:1003900001F0DEF880F000400890A9F1010000268D
:1003A000079036E0344627E0039804EB09070090F5
:1003B00005EBC700834606C8029B04A8FFF76EFF43
:1003C00055F83400049902F043F945F8370005EB7D
:1003D000C4070599786802F03BF9CBF8040055F89A
:1003E0003400049901F00EFE45F834000599786850
:1003F00001F008FE54447860B4F5007FD4DB08981F
:10040000DDE90212009002A8019BFFF747FF079861
:10041000761C8642C6DD08F10100069980468842B6
:1004200094DD09B0BDE8F08F182D4454FB2109403C
:10043000F0B5CC78002204F00F03E40601D58C78E7
:1004400023430C784FF00F0C14F0FF0F4FF0010E08
:100450001BD005680E880EFA02F42640A64210D181
:1004600096000CFA06F725EA070703FA06F5CE7898
:100470003D43282E02D0482E02D002E0446100E025
:100480000461521C082AE5D305600A88FF2A1CD99A
:100490004468002202F108060EFA06F50E882E4086
:1004A000AE420ED196000CFA06F7BC4303FA06F7EB
:1004B000CE783C43282E00D14561CE78482E00D11D
:1004C0000561521C082AE5D34460F0BD02460020B5
:1004D00092680A4200D00120704741617047016173
:1004E0007047FEE710B5174C00284FF080012046FA
:1004F00011D0FFF7F4FF00F027F840212046FFF766
:10050000EEFF00F021F840212046FFF7E6FFBDE8AE
:10051000104000F019B8FFF7E0FF00F015F8402197
:100520002046FFF7DCFF00F00FF840212046FFF7E0
:10053000D4FF00F009F82046BDE810408021FFF705
:10054000CEBF0000000C01400620401EC0B2FCD20D
:100550007047000038B50121082000F0CBF91420C5
:100560008DF803004020ADF800000320074C8DF803
:10057000020069462046FFF75BFF8021ADF80010BE
:1005800069462046FFF754FF38BD0000000C0140CB
:100590002DE9F0411E4615460F46804600F0C0F892
:1005A000404600F07BF8164C2078012812D0F8B2B3
:1005B00000F074F8207801280CD000F0B1F808F1B0
:1005C0000100C0B200F06AF82078012802D00024AF
:1005D000771E0FE00020BDE8F08100F03DF805F83F
:1005E000010BBC4201D1012000E00020FFF77AFF9F
:1005F000641CA4B2B442F0D300F0AEF80120EAE7E4
:100600002400002070B50E46054600F089F8284603
:1006100000F044F80F4C2078012818D0304600F044
:100620003DF82078012812D000F07AF86D1CE8B26D
:1006300000F034F82078012809D000F00DF80446C5
:100640000120FFF74FFF00F087F8204670BD002023
:1006500070BD00002400002070B500240E4E254619
:100660006006040E40213046FFF739FFFFF76CFFAC
:1006700080213046FFF72AFF08B1641CE4B2402114
:100680003046FFF72AFFFFF75FFF6D1CEDB2082D24
:10069000E6D3204670BD0000000C014070B51E4E30
:1006A0000546002428064FF08001304602D5FFF7AA
:1006B00016FF01E0FFF711FFFFF746FF402130462C
:1006C000FFF70DFFFFF740FF40213046FFF705FF22
:1006D000FFF73AFF6806641C050EE4B2082CE1D36C
:1006E00080213046FFF7FBFEFFF72EFF402130460A
:1006F000FFF7F5FEFFF728FF80213046FFF7E6FE03
:10070000064900B10120087040213046FFF7E5FEA0
:10071000BDE87040FFF718BF000C01402400002026
:1007200010B50C4C40212046FFF7D9FE8021204611
:10073000FFF7D5FEFFF708FF80212046FFF7CDFE2B
:10074000FFF702FF40212046FFF7C7FEBDE810403B
:10075000FFF7FABE000C014010B5094C802120467D
:10076000FFF7BBFE40212046FFF7B9FEFFF7ECFE86
:1007700080212046FFF7B3FEBDE81040FFF7E4BE3E
:10078000000C014070B515460E460446FFF7C8FF41
:100790002046FFF783FF0B4C207801280FD030460E
:1007A000FFF77CFF2078012809D02846FFF776FF65
:1007B0002078012803D0FFF7CFFF012070BD002073
:1007C00070BD00002400002010B5C0220221AE2020
:1007D000FFF7D8FF00220321AE20FFF7D3FF00224E
:1007E0000421AE20FFF7CEFF00220521AE20FFF747
:1007F000C9FF00220621AE20FFF7C4FF0F22082107
:10080000AE20FFF7BFFF03220921AE20FFF7BAFF9A
:1008100027220A21AE20FFF7B5FF32220C21AE209D
:10082000FFF7B0FF32220D21AE20FFF7ABFF7F2292
:100830001021BDE81040AE20FFF7A4BF08B501218C
:10084000082000F057F804208DF80300C001ADF82F
:10085000000069460148FFF7EBFD08BD000C0140B0
:1008600010B540220921AE20FFF78CFF002800D0F0
:10087000012010BDFEE7704730B50F23C278017824
:100880000125F2B1144A126801F1E02102F4E0629C
:10089000C2F5E062120AC2F10404D3404278A240D9
:1008A00084781C401443220181F80024007800F071
:1008B0001F018D404009800000F1E020C0F8005188
:1008C00030BD01F01F0085404809800000F1E020A4
:1008D000C0F8805130BD00000CED00E00249084333
:1008E00002490860704700000000FA050CED00E0C6
:1008F00070470000044A0029916901D0014300E0DB
:1009000081439161704700000010024030B5204AD9
:100910005168204B11F00C0103D0042901D00829A3
:1009200001D0036012E05168536801F470114FF078
:10093000020413F4803F04EB914102D053689B03FF
:1009400001D5154B00E0134B5943016051680F234B
:1009500003EA1111114B5C5C0168E140416054688D
:10096000072505EA14241C5D21FA04F48460546808
:1009700005EAD4241B5DD940C1605268032303EA11
:100980009232064B1B1F9A5CB1FBF2F1016130BD44
:100990000010024000127A0000093D0034000020DF
:1009A000704700000CB500222648009201920168B1
:1009B00041F4803101604FF4A063016801F400311B
:1009C00001910099491C0091019911B9009999422E
:1009D000F3D10168890333D5012101911A490A68CD
:1009E00042F010020A600A6822F003020A600A68F4
:1009F00042F002020A60416841604168416041681A
:100A000041F480614160416821F47C11416041689A
:100A100041F454114160016841F080710160016846
:100A20008901FCD5416821F003014160416841F032
:100A3000020141604168C1F381010229FAD10CBD74
:100A400001920CBD00100240002002404FF0E02156
:100A50000428086903D020F004000861704740F0C2
:100A60000400FAE7704700000F4810B5016841F034
:100A70000101016041680D4A1140416001680C4A62
:100A800011400160016821F480210160416821F476
:100A9000FE0141604FF41F018160FFF783FF0549AC
:100AA0004FF00060086010BD001002400000FFF829
:100AB000FFFFF6FE08ED00E010B5074C01212046CF
:100AC00000F00FF8002805D02046BDE810400121B5
:100AD00000F004B810BD000000040040C9430182CA
:100AE000704702460020138A92890B4202EA0102F3
:100AF00002D0002A00D001207047000070B5154CCC
:100B000040F22551204600F03CF800280ED0204647
:100B100000F0C4F8104AC1B21088030406D444049B
:100B20004FF0000306D50A2901D0138070BD40F4B0
:100B300000400DE00D2909D0C0F30D04074D401C05
:100B400080B229551080C728EFD870BD40F480408E
:100B5000108070BD003801402E0000205821002078
:100B60000029818902D041F4005101E021F40051B3
:100B7000818170470246002012880A4200D001207D
:100B8000704770B501F01F0501260024C1F3421320
:100B900006FA05F2012B0FD0022B0FD0838A4FEA01
:100BA00011210088134206FA01F600EA060001D07E
:100BB00000B10124204670BD8389F0E7038AEEE787
:100BC00010B5C1F3421301F01F040121A140012B14
:100BD00007D0022B07D01430002A026805D00A4340
:100BE00004E00C30F8E71030F6E78A43026010BDED
:100BF00030B50446008A85B00D464CF6FF710840BA
:100C0000E98801432182A0894EF6F3110840A988A2
:100C10002A8911436A8902431143A181A08A4FF6B0
:100C2000FF410840A9890143A1826846FFF76EFE93
:100C30001948844201D1039800E00298A18909046F
:100C400000EBC00101EB0010296801D5490000E06C
:100C50008900B0FBF1F06422B0FBF2F109010B094D
:100C60006FF018056B4300EB8300A3891D044FF060
:100C7000320306D503EBC000B0FBF2F000F0070032
:100C800005E003EB0010B0FBF2F000F00F000843AA
:100C9000208105B030BD0000003801408088C0F3DD
:100CA00008007047C1F3080181807047FEE700002B
:100CB00010B5044A044B00F07DFCBDE8104000F084
:100CC00005B80000182D4454FB21F93F2DE9F04FE1
:100CD000002687B004460D46DFF878815E4FDFF8C6
:100CE0007C91DFF87CA13246334600F0F9FE02D257
:100CF000012685F000453A465A4B2046294600F029
:100D00007DFB04460D463A46434601F023F80AD2DD
:100D1000002E7DD000263A4643462046294601F063
:100D20005BF804460D463A464F4B2046294601F0F3
:100D300011F807D23A4643462046294601F040F8CA
:100D400004460D46C8464A46D146534620462946E3
:100D500000F0ECFC00F07EFE074600F0AAFE4246E2
:100D60004B4600F0F9FE22462B4601F029F80446D6
:100D70000D4642463D4B00F0EDFF08D242464B4641
:100D8000204629467F1C01F027F804460D463849C5
:100D9000224601EBC700D0E90083C7F1640001EBF4
:100DA000C0009946D0E900739A462B461046194672
:100DB00000F0D2FECDE9001022462B4600F0CCFE1A
:100DC000834622462B46029100F0C6FE42464B4621
:100DD00000F0C2FE0022274B00F0A8FCCDE9040180
:100DE00058463A465346029900F0B6FE0022224B7E
:100DF00000F09CFCCDE90201DDE9001042464B46C3
:100E000000F0AAFE4FF0FF3201F0C9FC8B4600E073
:100E10001DE000903A4653462046294600F09CFECD
:100E200042464B4600F0C6FB5B46009A00F0D4FFFA
:100E3000DDE9022300F0D0FFDDE9042300F0BAFB76
:100E4000002E01D081F0004107B0BDE8F08F0126EF
:100E500061E70000FB210940182D44541A2717921E
:100E6000BF15903FFB211940FB21F93FBF15803F83
:100E70007828000800003840000018407047000043
:100E800010B500F087F900F019F8084C08496068BF
:100E9000884202DD0748084901E001F087F800F0C8
:100EA00057FB6060BDE8104000F0B2B91C000020A4
:100EB000E1FAC7428FC2F5285CFF58402DE9FF5F79
:100EC0004FF00009A74E4F46CDF804904C464FF422
:100ED0000078A6F58455CDF80C9055F834104846A6
:100EE00001F090F8814656F83410384601F08AF83F
:100EF000641CA4B207464445EFD36FF0080B5C4670
:100F00005946484601F079FC02902146384601F0E6
:100F100074FC00244746009055F83400029901F013
:100F200097FB45F8340056F83400009901F090FB27
:100F300046F83400641CA4B2B8464445ECD30124FE
:100F40006FF001094FF4FF7A55F83400012101F0E8
:100F500054FC05EBC40757F8081C01F053F8B968B6
:100F600001F050F8494601F048FC45F8340056F8C5
:100F70003400012101F041FC06EBC40757F8081CBE
:100F800001F040F8B96801F03DF8494601F035FC40
:100F900046F83400641CA4B25445D5D900246FF03F
:100FA00002094FF4FC7A05EBC40755F83400B96820
:100FB00001F028F8396901F025F8B96901F022F843
:100FC000396A01F01FF8B96A01F01CF8396B01F0B9
:100FD00019F8B96B01F016F8494601F00EFC45F816
:100FE000340006EBC40756F83400B96801F00AF87B
:100FF000396901F007F8B96901F004F8396A01F0BC
:1010000001F8B96A00F0FEFF396B00F0FBFFB96B25
:1010100000F0F8FF494601F0F0FB46F83400641C8C
:10102000A4B25445BFD35049002008804F48FFF771
:1010300059F94C48FFF756F9002405EBC400406805
:10104000014601F0B1F9074655F83400014601F0B8
:10105000ABF9394600F0D6FF00F014FA45F8340039
:1010600006EBC4004068014601F09EF9074656F8B9
:101070003400014601F098F9394600F0C3FF00F052
:1010800001FA45F83400641CA4B24746BC42D4D3EC
:101090000124019855F8341000F0B4FF019056F87F
:1010A0003410039800F0AEFF641CA4B20390BC425D
:1010B000EFD32F49002055F830208A4203DD401C31
:1010C00080B23228F7D31E21284800F0F9F80446F0
:1010D0001E21244800F0F4F8204600F0EAFC00222B
:1010E000244B00F039FD5A4601F059FB0022224BF7
:1010F00000F032FD00F02CFA01F0BAF8DFF8688059
:1011000008F10408C8F80000DDE9001001F04CF90E
:101110000446DDE9021001F047F9214600F0E6FF40
:1011200000F044FF04460D46144A154B00F014FD30
:1011300006460F4620462946124A134B00F00CFD86
:1011400022462B4600F008FD32463B4600F032FABC
:101150000E4A0F4B00F02EFA00F0FAF9C8F804001E
:10116000BDE8FF9FD8100020180000205800002084
:10117000000020410000594000004E40B4C876BE37
:101180009F5A3E4048E17A14AE8746C0AE47E17AA6
:1011900014B657402DE9F05F184DDFF8688000273E
:1011A0002F804FF40076DFF858A0DFF85CB008F528
:1011B000845918E000F0CCF82C88B44213D2BAF865
:1011C000000001F0A9F848F8340008EBC4004760BB
:1011D000BBF8000001F0A0F849F8340009EBC400A6
:1011E000641C47602C8031460848FFF76FF90028DF
:1011F000E0D02888B042F6D3BDE8F09F1800002068
:10120000260000205800002028000020000C01408B
:101210002DE9F041174DFC20174928700220A870D5
:101220000120E870BB242C7108786871A8714E68A1
:10123000304601F01DF8000AE871304601F034F83C
:101240000E492872092009786972AC720B260C4F7E
:101250006870002440213846FFF78CFC0028F9D044
:10126000295D3846FFF71EFD641CA4B2B442F1D3D9
:10127000BDE8F081440000201C0000200000002098
:101280000038014010B56FF00400FFF7DFFB09489C
:1012900009490068B0FBF1F00849C0B200EB400218
:1012A0000870C2EBC0104FF6FF7202EAC00048801F
:1012B00010BD00000400002000127A002A00002067
:1012C0002DE9F0410424884605462646076A09E0D0
:1012D00055F83410384601F033F802D255F834701E
:1012E0002646641C4445F3DB3046BDE8F08100002F
:1012F000FFF7BAFB4FF4A060FFF7F0FA4FF4165077
:1013000000F0D6F8FFF7BEFFFFF724F9FFF796FAD3
:10131000FFF7A6FAFFF758FA00244FF400760B4DBA
:1013200001E000F015F831462846FFF7CFF8002815
:10133000F7D0641C802CF6DB31462846FFF7C6F850
:101340000028F9D1FFF79CFDF6E70000000C0140F2
:101350007CB5214C0025294625806580AE20FFF70D
:1013600051F90121AE20FFF74DF907208DF800005B
:10137000014606236A46AE20FFF70AF99DF80000F1
:101380004FF6FF71228801EA803010449DF8012059
:1013900001EA821210449DF8022000EB920080B214
:1013A00020809DF80320638801EA82321A449DF868
:1013B000043001EA831111449DF8052001EB9201EC
:1013C00089B242F210726180914200D865809042E9
:1013D00000D825807CBD00002600002010B50C46FA
:1013E00000F038FB00F080FF002C03DA4FF07E5154
:1013F00001F02EF9BDE8104000F0D8BD2DE9F0470E
:1014000014461D46074689460022134620462946B3
:1014100000F0E4FA03D100200146BDE8F08722463F
:101420002B463846494600F081F9FFF7D7FF2246A0
:101430002B4600F091FB3A464B4600F0C1FC0646B5
:101440008846002213463846494600F049FB01D23F
:10145000012700E00027002213462046294600F01D
:101460003FFB01D2012000E00020874207D0224646
:101470002B463046414600F0AFFC064688463046D3
:101480004146CAE770B5054601F05AF8044620F017
:101490000040C0F1FF40C00F08D025F00040C0F16F
:1014A000FF40C00F04BF0120FEF7BAFE204670BD0A
:1014B00070B5054686B0012144F20400FFF71AFA20
:1014C0004FF40070ADF8100003248DF8124018207E
:1014D0001D4E8DF8130004A93046FEF7A9FF301504
:1014E000ADF8100004208DF8130004A93046FEF773
:1014F0009FFF25208DF814008DF815408DF81640BB
:1015000001208DF8170005A8FFF7B6F90020ADF807
:101510000400ADF80600ADF80800ADF80C000C2092
:101520000A4CADF80A00009569462046FFF760FBBB
:10153000012240F225512046FFF742FB01212046BF
:10154000FFF70EFB06B070BD0008014000380140F7
:1015500021F00042A2F16052B2F5801F01F0004379
:1015600028BFD2F17F6C0BD95FEA001C43EAC202AC
:1015700042EB507018BF704728BF20F00100704741
:10158000B2F5801FBCBF184670474FEA410C1CF5EE
:10159000001F02D2084600F0CEBF70B500F086FBF7
:1015A00000000089FFF7F6BF4FF00040A0F5800073
:1015B0007047000010B591EA030F48BF83F0004365
:1015C00000F11284841A71EB030C05D2121943EB5B
:1015D0000C03001B61EB0C01DFF824E14FEA11540E
:1015E000A4EB135C1EEA430F18BF9EEA445F73D05E
:1015F00023EA0E03DCF1200E21EA045143F48013A8
:1016000032D322FA0CFE10EB0E0023FA0CFE41EB53
:101610000E01CCF1200E03FA0EFE10EB0E0051F17C
:101620000001B1F5801FCCF1200E32D201EB045144
:1016300012FA0EF2BDE8104058BF7047401C38BF88
:101640005FEA420218BF7047002814BF20F0010073
:1016500041F100014FEA410313F5001F38BF704705
:10166000A1F1C04100F070BB012A43EB0302ACF1D1
:10167000200CDCF11F0E32BF4FF0000E23FA0CF3EA
:1016800010EB030041EB0451B4EB115FD0D0A1EBA0
:10169000045101F5801149085FEA300001EB045163
:1016A0000ED350F1000038BF12FA0EFE08D1BDE88B
:1016B0001040C9E7401C38BF5FEA4202CAD1C3E705
:1016C000BDE810404FEA410313F5001F38BF7047D3
:1016D000A1F1C04100F038BB9EEA445F08D011EA96
:1016E0005E0FBDE8104004BF01F0004100207047CC
:1016F000BDE8104070B500F0D9FA00BF64FBBE3EF3
:101700000000E0FF02494FF0000001F016B800BFF2
:101710000000F87F491058BFC1F140415B1058BF2D
:10172000C3F140438B42EFF3008070472DE9C04185
:1017300030B4DFF8A0C23CEA111418BF3CEA13141D
:1017400000F0EC8081EA03051CEA111444EAD57428
:1017500018BF1CEA131500F0C780A4EB05044FF076
:10176000004545EAC12145EAC32341EA505143EA15
:10177000525304F17F74994204F500344FEAC020BB
:101780004FEAC22208BF904200F09C804FEA1365E6
:101790000FF24016765D4FEA134506FB05F7C7F1D9
:1017A000807706FB07F74FEAD737A7FB0368764237
:1017B000C8F58038A7FB06CE38BFA8F1010807FBA3
:1017C00008E64FF0000EA6FB028CE6FB03CEDCF130
:1017D000000CCEF1004E38BFAEF1010EA6FB0C5846
:1017E0004FF000074FF00005E6FB0E87A1FB08C68F
:1017F000A0FB07CE16EB0E0645F10005E1FB0765E1
:1018000015F1E04E7EBFA4F580345FEA46066D41D7
:1018100016F1800745F100054FEA17274FEA0666E3
:1018200047EA0567A6F1DE46B6F1805F4FEA152567
:101830001FD9384624F0010C05EBC471BCF1FE6FD2
:1018400001EB0C1102D8F0BCBDE8008124425CBF62
:1018500001F5801E9EEAC47F02D4F0BCBDE8008181
:10186000244238D4F0BCA1F1C041BDE8004100F0F1
:101870006BBA4FEAD22242EA43524FEAD323A7FB84
:1018800002864FEAD02040EA415007FB03661EEA79
:101890000E0F4FEAD12105FB026658BFA6EB00569A
:1018A000B6EB00564FEA520E4EEAC37E18EB0E0E10
:1018B00056EB530EBDD518EB02085E417F1C55F167
:1018C0000005B6E74FF480154FF000074FF0000613
:1018D0004FF00008ADE7F0BC4FF0000001F1C0414F
:1018E00001F00041BDE8008111EA0C1F0CEA13155C
:1018F00000D00CE013EA0C1F00F025804FF0000030
:10190000F0BC81EA030101F00041BDE80081F0BCB8
:10191000BDE8004181EA030100F016BAF0BCBDE861
:10192000004170B500F0C2F9097EFC3E00F007B836
:1019300081EA03014FF0000001F00041704781EAA5
:10194000030100F001BAF0BCBDE800414FF0000017
:1019500021497047FFFDFBF9F7F5F4F2F0EEEDEBEE
:10196000E9E8E6E4E3E1E0DEDDDBDAD8D7D5D4D39D
:10197000D1D0CFCDCCCBCAC8C7C6C5C4C2C1C0BFE9
:10198000BEBDBCBBBAB9B8B7B6B5B4B3B2B1B0AFEF
:10199000AEADACABAAA9A8A8A7A6A5A4A3A3A2A1D3
:1019A000A09F9F9E9D9C9C9B9A999998979796958E
:1019B00095949393929191908F8F8E8E8D8C8C8B2A
:1019C0008B8A8989888887878685858484838382B2
:1019D000828181800000FF070000F87F51EA030C3C
:1019E00017D41CF5801F58BFBCF5801F00F106807E
:1019F000994218BF704708BF9042704707D711F54A
:101A0000801F58BF13F5801F19D49942704789422F
:101A100070471CF5801F08D5BCF5801FF7D58B4299
:101A200018BF704708BF824270474FF4001C1CEB80
:101A3000410F38BF1CEB430F01D28B42704770B58A
:101A400000F034F9922449004FF000514FF08053D8
:101A5000FFF760BE4FEA41034FEA5353A3F580639B
:101A6000D3F11E03C8BFD3F1210C0CDD4FF00042AF
:101A700042EAC12242EA505232FA03FC8CEAE17C8B
:101A8000ACEBE1707047102BC4BF0020704703F52A
:101A9000787CBCF1FF3F04D06FF0004282EA210065
:101AA000704770B500F002F9499224800020704719
:101AB000F2E710F0004248BF4042B0FA80F310FA5B
:101AC00003F10AD0C3F11D0303F580634FEA4150CF
:101AD00002EB035202EBD12170474FF00000704738
:101AE00051EA030C17D41CF5801F58BFBCF5801FAA
:101AF00000F10680994218BF704708BF90427047B6
:101B000007D711F5801F58BF13F5801F19D49942CC
:101B10007047894270471CF5801F08D5BCF5801FAF
:101B2000F7D58B4218BF704708BF824270474FF409
:101B3000001C1CEB410F38BF1CEB430F01D28B4242
:101B4000704770B500F0B2F8922449004FF0005190
:101B50004FF08053FFF7DEBDDFF848C170B51CEAD7
:101B6000111E1EBF1CEA13159EEA0C0F95EA0C0FFE
:101B700000F06F8081EA030423EA4C134EEAD47E1E
:101B800021EA4C1141F4801143F48013AE44A1FBCF
:101B9000024CA0FB0365AEF17F7E361955EB0C05B8
:101BA000A1FB034C4CF10003A0FB021C16EB0C063E
:101BB000654153F10003094218BF46F0010613F4D2
:101BC000007F0BD14FEA03314FEA0530340341EA7D
:101BD000155140EA16506FF003020AE04FEAC321A4
:101BE0004FEAC520F40241EA555140EA56506FF0E1
:101BF000020202EB2E4201EB025585EACE710AD0B9
:101C00005FEA440C18BF24F0004450F1000041F199
:101C1000000120EAD47040F2FE7C624500D270BD23
:101C2000A84214BF4FF080444FF04044002E08BF3C
:101C30000024BEF1806FA8BFA1F1C041BDE8704093
:101C400080F282804FF0000001F1C04101F00041BC
:101C500070479EEA0C0F0CEA131518BF95EA0C0F9B
:101C600006D04FF0000081EA030E0EF0004170BD77
:101C700000F01CF88900013E00F007B800F009B838
:101C80004FEA430C5FEA5C5C08D081EA030100F094
:101C90005BB84FEA410C5FEA5C5CF6D14FF00000A4
:101CA000014970470000FF070000F87F0EF1020EA7
:101CB0002EF0030E5EF8046B364205D4012A43EB86
:101CC000030515F5001F12D8012841EB010C1CF586
:101CD000001F0CD80ED14FEAD17C15F5001F0CEB7C
:101CE0004C0C0CF1020C08BF4CEBD37C04E04FF021
:101CF000080C01E04FEAD37C0CEB4C0526FA05F604
:101D000006F00706B6F1040C06D20EEB860CBDE811
:101D100070404CF0010C6047DFE80CF0090B020248
:101D20004FF000414FF00000A1F5002170BD1946B1
:101D30001046012851EB010418BFD4F5001484BFEC
:101D4000002001F0004170BD0808A0F500114FEA25
:101D50003101704753EA010C17D41CF5801F58BF9E
:101D6000BCF5801F00F106808B4218BF704708BF8A
:101D70008242704707D713F5801F58BF11F5801FA7
:101D800019D48B4270479B4270471CF5801F08D5C1
:101D9000BCF5801FF7D5994218BF704708BF904225
:101DA00070474FF4001C1CEB430F38BF1CEB410F76
:101DB00001D2994270470FB40CBC03BCFFF7C1BEFF
:101DC00091EA030F10B581F000413FF5FBAB83F0C2
:101DD000004300F009B8000010B591EA030F48BFB6
:101DE00083F000433FF5EEAB841A71EB030C07D28E
:101DF00012198CF0004C43EB0C03001B61EB0C013F
:101E0000DFF8A4E14FEA1154A4EB135C1EEA430F80
:101E100018BF9EEA445F00F0B08023EA6E0352428E
:101E200021EA0451C3EB6E0338BF5B1EDCF1200EC8
:101E300025D322FA0CFE10EB0E0043FA0CFE41EB08
:101E40000E01CCF1200E03FA0EFE10EB0E0051F144
:101E50000001CCF1200E29D412FA0EF201EB04514C
:101E6000BDE8104058BF7047401C1CBFB2F1004F86
:101E7000704700280CBF491C20F00100704712EB8E
:101E8000020E43EB030218BF4FF0010E4EEA42026E
:101E9000ACF1200CDCF11E0E54D943FA0CFE10EB11
:101EA0000E0051F1FF31CCF11E0ED5D50EF1010E11
:101EB00012FA0EFE404141EB010101EB445C5FEA86
:101EC0005C5C10D910EBDE7001EB045138BFBEF141
:101ED000004FBDE8104018BF704700280CBF491CD8
:101EE00020F00100704730D24FEAD42C11F50011D8
:101EF00024F400641BD0B1FA81F20B3AA41AA41E98
:101F0000D2F12003914030FA03F31943904001EBE2
:101F1000CC71002C01EB0451BDE81040A8BF704704
:101F200001F1C0414FF0000001F000417047B0FAEC
:101F300080F310FA03F100D110BDE41A173C4805F4
:101F4000C90AE4E701EB045110BD491001EB04514B
:101F5000BDE810404FEA300002E04FF0000170474A
:101F60004A0008BF0042F8D0B2F5001F28BF7047F2
:101F700001F000414FF0000070479EEA445F07D037
:101F800011EA5E0FBDE8104004BF00210020704739
:101F9000BDE8104070B5FFF789FE00BF40DFF63E98
:101FA00083F00041104670470000E0FF43004FEA15
:101FB000D30C4FEA3C0C43401FBF40070CF160516B
:101FC00013F0FE4F70471CF0006F03D100200CF09F
:101FD000004170470CF0004343EA507010B540EAEE
:101FE000CC0000F062FA00BF000000924FEA00014E
:101FF000FFF7AABE4FF000414FF00000A1F500210D
:102000007047000090EA010F48BF81F0004100F1E5
:102010002683421A3CBF801A89184FEAD0524FF0EB
:102020007F4C1CEA410FA2EBD15318BF9CEA026F10
:1020300000F03B804FF0004C4CEA00204CEA0121BC
:1020400021FA03FC10EB0C0C1ED202F1FF325FEA06
:102050001C2040EBC25038BF70471CF07F0F4FEA86
:10206000400C18BFBCF17F4F38BF7047C3F120034D
:10207000994008BF20F00100BCF17F4F38BF704786
:10208000A0F1C04000F057BA4FEA3C00000A40EB14
:10209000C25028BF1CF0FF0F4FEA400CE6D018BF1B
:1020A000BCF17F4F38BF7047EAE79CEA026F05D06A
:1020B00010EA5C0F08BF00F00040704710B500F058
:1020C000F4F900BF64FBBE3E014800F036BB00BF20
:1020D0000000C07F401058BFC0F14040491058BFB9
:1020E000C1F140418142EFF3008070474FF47F0C13
:1020F0001CEAD0121EBF1CEAD11392EA0C0F93EA1D
:102100000C0F00F0858090EA010F48BF42F4807206
:1021100040F4000C41F400002CF07F4120F07F409F
:1021200000B58142A2EB03020FF2081CACEB504E4B
:10213000C0F100009EF800E04FEA4E0E00FB0EFCDE
:1021400038BF49004FEA2C1C02F5FA020CFB0EF3D3
:102150004FEACE1E4FEA112C4FEAC1210EEB635E0F
:1021600042EB22420EFB0CFC4FEA1C5300FB031116
:102170004FEA112C4FEA01310EFB0CFC4FEADC4C0C
:1021800000FB0C11C14228BF09184CEB03335DF86A
:1021900004EB10EB410143EBC250B2F57C0F38BFAA
:1021A000704729D512F0F00F1CBF00F1C04000F0BD
:1021B00000407047008182838485868788898B8C64
:1021C0008D8E8F919293959697999A9C9D9FA0A2A0
:1021D000A3A5A7A8AAACAEB0B2B3B5B7B9BCBEC0F0
:1021E000C2C5C7C9CCCED1D4D7D9DCDFE2E6E9EC91
:1021F000F0F3F7FAFE0000004FEA400C0CF1807C8F
:10220000BCF17E4F28BF7047B0F1C04000F093B9D9
:1022100090EA010F0CEAD11348BF42F48072624584
:1022200038BF634507D213F47F0F16D080EA010050
:1022300000F00040704710B500F037F9097EFC3E11
:1022400000F005B880EA010000F00040704780EA25
:10225000010000F0004000F06EB912F47F0F04BFDF
:102260000248704780EA010000F065B90000C07FB5
:1022700041000B0ED3F19E0208D950F400034FEA3F
:10228000032323FA02F048BF4042704710B500F024
:102290000CF900BF49922480002070476FF0004283
:1022A00082EA200070470000C10DD1F19E0206DBDA
:1022B0004FEA002343F0004323FA02F07047004244
:1022C00007D54FEA4001B1F1FE4F02D24FF00000B6
:1022D000704710B500F0E9F849922480002070475B
:1022E0006FEA20007047000010F0004148BF4042F4
:1022F000B0FA80F310FA03F2C3F19D030BD051EA58
:10230000C35101EB1220530638BF704700F10100A2
:1023100008BF20F001007047B0FA80F310FA03F212
:10232000C3F19D030AD0D90501EB1220530638BF33
:10233000704700F1010008BF20F001007047000065
:1023400050EA010C00F113801CF5000F58BFBCF5DA
:10235000000F01D48842704707D710F5000F58BF0F
:1023600011F5000F15D488427047894270471CF55B
:10237000000F04D5BCF5000FF7D5814270474FF030
:10238000807C1CEB400F38BF1CEB410F01D2814217
:10239000704710B500F089F8922449004FF00050C2
:1023A0004FF08051FFF796BE4FF47F0C1CEAD0121D
:1023B0001EBF1CEAD11392EA0C0F93EA0C0F00F037
:1023C000478090EA010F48BF42F480724FF0004C02
:1023D0004CEA00204CEA012102EB0302A0FB0113AE
:1023E000A2F50002002918BF43F001035B0028BFDB
:1023F0004FEA330342EB22425FEA132C4CEBC2500C
:102400002EBFBCEB436FB2F57C0F70474FEA036CF5
:10241000BCF1004F08BF20F00100B2F57C0F38BFBF
:1024200070470BD582F0FF0212F5803FC8BF70479E
:1024300000F1C040D8BF00F00040704700F5000C2C
:102440005FEA4C0C48BF7047B0F1C04000F073B871
:1024500090EA010F0CEAD11348BF42F48072624542
:1024600038BF634504D280EA010000F000407047A5
:1024700010B500F01AF800BF8900013E00F007B85F
:1024800000F009B85FEA410C5FEA1C6C08D080EAF2
:10249000010000F050B85FEA400C5FEA1C6CF6D116
:1024A0004FF00040A0F5800070470EF1020E2EF0B4
:1024B000030E5EF8044B244204D44FEA4102B2F109
:1024C0007F4F11D84FEA4003B3F17F4F0CD80ED1A4
:1024D0004FEAD07CB2F17F4F0CEB4C0C0CF1020CAC
:1024E00008BF4CEBD17C04E04FF0080C01E04FEA50
:1024F000D17C0CEB4C0324FA03F404F00704B4F190
:10250000040C06D20EEB840CBDE810404CF0010C1C
:102510006047DFE80CF0070802024FF00040A0F52A
:10252000800010BD0846420018BFD2F1807288BFFB
:1025300000F0004010BDFF2141EAD050C0057047B7
:102540004FEAD051002988BFD1F1FF0240F27580D7
:1025500001F17D014FEA002070B5490840F00040CC
:1025600038BF40080EA2430E040CD25C02FB02F3FB
:1025700004FB03F3C3F14043A3FB0254ED0D45EA12
:10258000442202FB02F3A0FB03546D42C4F1404419
:1025900038BF641EA2FB05350023E2FB0453EA0B9F
:1025A00042EA4342A0FB023212F14004A2F12103AD
:1025B000E40903F07F031F2B32D904EBC15070BD37
:1025C000FEFAF7F3F0ECE9E6E4E1DEDCD9D7D4D2A9
:1025D000D0CECCCAC8C6C4C2C1BFBDBCBAB9B7B6DA
:1025E000B4B3B2B0AFAEACABAAA9A8A7A6A4A3A23D
:1025F000A1A09F9E9E9D9C9B9A9998979796959433
:102600009393929190908F8E8E8D8C8C8B8A8A89E9
:102610008988878786868584848383828281818076
:1026200004FB04F6B6EB004603D5E64248BF641C43
:10263000C3E7A64258BF641CBFE711F0FF0F02D1E9
:1026400000F00040704710B5FFF72FFF7FDBFFBEA3
:1026500090EA010F48BF81F000413FF5DAAC421A21
:1026600004D882F00042A0EB020011444FEAD0529D
:102670004FF07F4C1CEA410FA2EBD15318BF9CEAEC
:10268000026F4AD04FF0004C4CEA00204CEA012186
:1026900021FA03FCB0EB0C0C0FD412F0FE0F36D075
:1026A0005FEA4C001DD5001240EBC25038BF7047A6
:1026B0001CF03F0F18BF70470BE0A2F101025FEA68
:1026C0001C2040EBC25038BF70471CF07F0F18BF72
:1026D0007047C3F12003994014BF401E20F0010051
:1026E000704780084FEA122308BF7047B0FA80FC99
:1026F000A2EB0C02CCF1280C60FA0CF093EA122F3A
:1027000004BF00EBC25070474FEAC3707047130A12
:102710005FEADC1008BF7047F6E79CEA026F04D05E
:1027200010EA5C0F08BF0020704710B5FFF7BDFE30
:1027300040DFF63E81F0004070470CF00F03092B9C
:1027400008BF082000F07F800A2B0BD0082B18BF91
:10275000704708BF1CF0400F0AD04FF000004FF048
:10276000000170471CF0400F18BF4FF00040704749
:102770001CF0100F08D020F0704300F07F4242EAB6
:10278000D3014FEA4370704700F0604021F07F4270
:1027900042EA000201F07F4040EA727070474FF059
:1027A000FF0C4CF4E06C1CEA11531CBF9CEA030CB8
:1027B0009445C2BFDA4201EB02517047002B0DD0A5
:1027C000BCF1000F0FD0002A01F00041A4BF41F07E
:1027D000E04141F07F614FF00000704701F000419F
:1027E0004FF00000704750EA01334FF09B0C18BFC8
:1027F0004CF0806C7EF486AF70474FF0FF0212EA17
:10280000D0521CBF92F0FF038B42C2BFD14200EBFB
:10281000C1507047002A0AD0002B0BD0002900F0CD
:102820000040A4BF40F0FE4040F40000704700F0BC
:102830000040704743024FF00B0C18BF4CF0806C07
:102840007FF442AC70471CF4801F11D01CF4E02FC1
:1028500003D06FEACC31490070474FF04050EFF39E
:10286000008222F0704242EA000282F30088704740
:102870004FF0000070470000000000000000000062
:102880006F0EA6389415903F6058F72D1215A03F93
:10289000AB047532561EA83F7993E01B0A13B03F74
:1028A000498E3932E515B43FF017FC7F7B17B83FEE
:1028B000DA97623D8C17BC3FE05BA15DEB0AC03F3D
:1028C000E9AA91330D09C23F7553A8670B06C43FAF
:1028D0006C2377D3C501C63F797A03651CFCC73FDB
:1028E000A3DDCC20EFF4C93F6A1FD2231EECCB3FFF
:1028F000CCFB94A589E1CD3F96071CFA11D5CF3FBB
:102900004769F9C94BE3D03F0E0E1483FDDAD13F7E
:102910001FFD24838ED1D23F4FE92F37EFC6D33F1F
:10292000FB02711F10BBD43FDD9657D0E1ADD53F00
:102930004B667FF3549FD63F19A9A8485A8FD73FBB
:1029400063A9AEA6E27DD83FC2E97CFCDE6AD93F2E
:1029500063C602524056DA3F9D8125C9F73FDB3FEF
:10296000C3ACB09EF627DC3F01DE442B2E0EDD3FCC
:102970001FA444E48FF2DD3F52A9BF5C0DD5DE3FBA
:1029800024F65B4698B5DF3FE4A21E39114AE03FCA
:102990009C2EF5E84EB8E03F512B183C7E25E13FD8
:1029A0005CE9014D9891E13FEA00B04796FCE13FB8
:1029B00057BB116A7166E23F5E5A750423CFE23F4E
:1029C0004136F479A436E33F0BACDD40EF9CE33FA6
:1029D0002AD520E3FC01E43FBC01B5FEC665E43F17
:1029E000EFEE004647C8E43FECB240807729E53F70
:1029F000F057EA895189E53F14201155CFE7E53FAB
:102A0000A66BC7E9EA44E63FCD3B7F669EA0E63F62
:102A1000664B6900E4FAE63F16B8D203B653E73FC7
:102A2000A53581D40EABE73FDCC50DEEE800E83FED
:102A300014EF3DE43E55E83FEA6B5B630BA8E83FCB
:102A4000844E8A3049F9E83FF2911D2AF348E93F64
:102A50005714EA470497E93FA8F4979B77E3E93FC7
:102A6000C94EF250482EEA3F095135AE7177EA3F20
:102A700017A65A14EFBEEA3F862E64FFBB04EB3F55
:102A80004005A506D448EB3F3CCA08DD328BEB3F3E
:102A9000F72E5951D4CBEB3F5AC0814EB40AEC3FCC
:102AA000A7E9D1DBCE47EC3F6C2C3D1D2083EC3FEA
:102AB00045899953A4BCEC3F8C15DCDC57F4EC3F02
:102AC00031BA5334372AED3FED17E2F23E5EED3F67
:102AD000468D32CF6B90ED3FE55AEF9DBAC0ED3F8A
:102AE000E3E2F45128EFED3FD8FF82FCB11BEE3F4B
:102AF0007E706CCD5446EE3FFF5444130E6FEE3F94
:102B0000F5BA893BDB95EE3F7235D1D2B9BAEE3FCB
:102B1000667EEC84A7DDEE3FE01E101DA2FEEE3FB8
:102B2000CF1BF785A71DEF3FF8A404CAB53AEF3FC6
:102B300014C46313CB55EF3FFF0925ACE56EEF3F9F
:102B400021385AFE0386EF3F5CE42F94249BEF3F2D
:102B5000D015051846AEEF3F03D9805467BFEF3F4D
:102B600003CAA53487CEEF3F5C93E3C3A4DBEF3FFA
:102B7000AF60262EBFE6EF3FFE43E4BFD5EFEF3F49
:102B8000D38C28E6E7F6EF3F86109D2EF5FBEF3F4E
:102B900012639147FDFEEF3F000000000000F03F90
:102BA000C02B000800000020440000006C01000859
:102BB000042C0008440000203C2800008801000884
:102BC00000000000000E27070000000000000000C9
:102BD00001020304060708090000000000000000CD
:102BE00000000000000000000000000000000000E5
:102BF00002040608000000000102030401020304AD
:042C000006070809B2
:0400000508000131BD
:00000001FF
